:020000001628C0
:0E0006008312031321088A00200882000800DC
:1000140003208A110A128000840AA00A0319A10A83
:08002400F003031D0A28080087
:10002C0083160313860183128601F1018030710659
:10003C00F0008030053A700203183A28061402309A
:10004C00FC004B30FD00FD0B2928FC0B2928061069
:10005C001930FC00AB30FD00FD0B3228FC0B3228B4
:10006C0000000000F10A1C280630FB001330FC00D5
:10007C00AD30FD00FD0B4028FC0B4028FB0B40284D
:10008C0000000000F10180307106F0008030053A6C
:10009C0070020318672806140230FC008230FD0041
:1000AC00FD0B5628FC0B5628000006101930FC00DE
:1000BC007430FD00FD0B6028FC0B60280000F10A79
:1000CC0049280630FB001330FC00AD30FD00FD0B61
:1000DC006D28FC0B6D28FB0B6D2800000000F10156
:1000EC0080307106F0008030053A700203189428B5
:1000FC0006140230FC00BA30FD00FD0B8328FC0B0B
:10010C00832806101930FC003C30FD00FD0B8C28B8
:10011C00FC0B8C2800000000F10A76280630FB004E
:10012C001330FC00AD30FD00FD0B9A28FC0B9A2817
:10013C00FB0B9A2800000000F10180307106F000E2
:10014C008030053A70020318C12806140230FC00F6
:10015C00F130FD00FD0BB028FC0BB02800000000B6
:10016C0006101930FC000530FD00FD0BBB28FC0B04
:10017C00BB28F10AA3280630FB001330FC00AD307D
:10018C00FD00FD0BC728FC0BC728FB0BC728000084
:10019C000000F10180307106F0008030053A7002E9
:1001AC000318EE2806140330FC002830FD00FD0B6C
:1001BC00DD28FC0BDD28000006101830FC00CE30CA
:1001CC00FD00FD0BE728FC0BE7280000F10AD02806
:1001DC000630FB001330FC00AD30FD00FD0BF428A5
:1001EC00FC0BF428FB0BF42800000000F10180301C
:1001FC007106F0008030053A700203181B290614B2
:10020C000330FC006030FD00FD0B0A29FC0B0A29B1
:10021C0006101830FC009630FD00FD0B1329FC0B6A
:10022C00132900000000F10AFD280630FB001330F2
:10023C00FC00AD30FD00FD0B2129FC0B2129FB0B33
:10024C00212900000000F10180307106F00080309F
:10025C00053A70020318482906140330FC00973045
:10026C00FD00FD0B3729FC0B3729000000000610A0
:10027C001830FC005F30FD00FD0B4229FC0B4229BD
:10028C00F10A2A290630FB001330FC00AD30FD00CA
:10029C00FD0B4E29FC0B4E29FB0B4E2900000000D8
:0402AC001B2857298B
:02400E004A2F37
:00000001FF
