:020000001628C0
:0E0006008312031321088A00200882000800DC
:1000140003208A110A128000840AA00A0319A10A83
:08002400F003031D0A28080087
:10002C0083120313A201A301A401A50183160814D2
:10003C0088140811881183120811881183168601FF
:10004C0083128601081841282208003A031D412812
:10005C008230FC00DD30FD00FD0B3228FC0B322819
:10006C0000000000081841282208003A031D41280E
:10007C000130A200A30A081C4428A2012308013A5B
:10008C00031D4A28FF3086002308023A031D50281E
:10009C00AA3086002308033A031D5628C330860075
:1000AC002308043A031D5C283C3086002308053ADB
:1000BC00031D612886012308063A031D67280130B9
:1000CC00A300881880282408003A031D8028823059
:1000DC00FC00DD30FD00FD0B7128FC0B71280000CD
:1000EC000000881880282408003A031D802801305D
:1000FC00A400A50A881C8328A4012508013A031D25
:10010C008928081188152508023A031D8F28081123
:10011C0088112508033A031D952808158811250810
:10012C00043A031D9B28081588152508053A031D5C
:0A013C00A1280130A5002828A22800
:02400E004A2F37
:00000001FF
