:020000007C2959
:0E000600F201F101F001F801F30100300800F1
:100014007B15FB1F14280130F300F201F101F001FC
:08002400FA0DF20CFF30080098
:08002C00FA1FF2130030080076
:10003400FB14FB1F2428FF30F300F200F100F00052
:08004400FA0DF20CFF30080078
:10004C00A0017208031D3B287108F2007008F10032
:10005C00F001A0157208031D3B287108F200F10194
:10006C00A01120167208031949282008F302031D59
:10007C00031C4D280310F21B5128F00DF10DF20D4D
:10008C00F30B41284D280130FC000320542802308A
:0E009C00FC000A2054280430FC001620080046
:1000AA007B14FB1F6028F201FA1FFF30F200F100F7
:0A00BA00F000FA0DF20CFF30080010
:0E00C400073083120313FD00FD0B66280800B1
:0E00D2008312031322088A002108820008000E
:1000E00069208A110A128000840AA10A0319A20A4F
:0800F000F003031D7028080055
:1000F80083120313FB017308031D77080319D32820
:1001080072087606FA007708F3077E30031C9028F9
:10011800F3020318D6289328F302031CD92872087F
:10012800F8007108FC007008FD00F817F6170310B6
:10013800F201F101F0011830A0007D1CAD2874080F
:10014800F00775080318750FF10776080318760F7E
:10015800F207F20CF10CF00CF80CFC0CFD0C03107F
:10016800A00BA128F21BBD28F80DF00DF10DF20D22
:10017800F3037B1B701CCF28F81FCF28F00A031944
:10018800F10A0319F20A031DCF28F20CF10CF00C46
:10019800F30A0319D628FA1FF2130030DB280130BE
:1001A8000320DB2802301A20DB2804300A20000054
:0201B80008003D
:1001BA00831203137008F8007108F000F101F201CC
:1001CA00F301FB01FC019630F300FA01F01FF3285A
:1001DA00F809F009F80A0319F00AFA177008F10089
:0C01EA007808F000F801F201262008005F
:1001F60083120313FB017308031938297208FA00E6
:10020600F2178E30F302F31F3B29F309F30A083085
:100216007302031C1E29F300F10D7208F100F201AE
:1002260008307302031C1E29F300F10DF101730857
:10023600031D031026297308031926290310F20C3F
:10024600F10CF30B21297B1B711C3029031C30296F
:10025600F10A0319F20AF21B4729FA1F4A29F20981
:10026600F109F10A0319F20A4A29F201F1014A29B0
:100276007B14FB1F4D29F201FA1F4D29FF30F200B6
:10028600F100FA0DF20C4D290130FC004F29003027
:10029600FC004F29FF30FC00FC08031953295520A8
:0A02A6007108F0007208F100080072
:1002B000831203139F01C0309F0483161F179F17DB
:1002C00083122408F000F00D7010F00D7010F00D86
:1002D000701070089F041F1462201F151F1D7229C3
:1002E00000006E291F101E08F100F00183161E0881
:0802F000F0040030F1040800E5
:1002F800831603130610831206100330A400582136
:10030800DD20E330F4003630F5007A30F6007D3039
:10031800F7007C20FB207008A30080301E3AF10013
:1003280080307006710203189A290614803023065B
:10033800F00080301E3A70020318A32906108129A4
:02034800A429E6
:02400E004A2F37
:00000001FF
