:040000008A15D12B61
:0E000600033083120313FD00FD0B07280800D2
:0A0014000320871403208710080062
:04001E0000000800D6
:100022007F30831203173B05F1007108BB00711F7B
:100032001E28031387160712212803138712071697
:020042000800B4
:100044008312031387110711B83003173B040313FA
:0600540088000A200800EC
:10005A007F30831203173B05F0007008BB000313BF
:10006A0087110711BF30F00570080317BB0070171E
:0E007A007008BB007008031388000A200800FD
:10008800FF308316031388000F200F208312871573
:10009800871007158714032008080317BB000313EC
:1000A800871007110F200F2083168801831203176A
:0600B8003B08F000080007
:1000BE008312031387108715071103173B080313C9
:0600CE0088000A20080072
:0E00D400831603136C088A006B088200080074
:1000E20083120313FB01FA01F9018030F800F10CCD
:1000F200F00C031C85287408F90775080318750F9E
:10010200FA070318FB0A0310F01F8D287408FA0778
:1001120075080318750FFB07FB0CFA0CF90CF80CA9
:10012200031C78287B08F3007A08F2007908F100B2
:060132007808F00008004F
:100138000030831203173502031CAF2835087F3CB3
:10014800031CAF2800303602031CAF2836083F3C9A
:10015800031CAF28B02802293508BB00112003175B
:100168003608BB00BB0CBB13BB0CBB13BB0CBB13CF
:10017800222003173508BB002D2044207008BA0040
:1001880044207008BA003608BB00BB0CBB13BB0C7C
:10019800BB13BB0CBB13222003173508BB002D2053
:1001A800073003173605F0007008B8007008F10032
:1001B8000130F00071080319E528F00D7010FF3EBA
:1001C800DF287008B8007009B900F3283908BA05A3
:1001D800FF283808BA04FF283808BA06FF28370865
:1001E800003A0319EA283708013A0319ED283708B5
:0E01F800023A0319F0283A08BB005F20080005
:1002060083120313F8010830FC00700DF80D740812
:10021600F80203181029F8070310F00DFC0B082943
:020226000800CE
:100228000030831203172402031C1F2924083F3CB3
:10023800031C1F2920294F290030220203182529D1
:10024800A20122087F3C03182B297F30A20000302E
:10025800230203183029A30123087F3C03183629F9
:100268007F30A30022082302031840292208A60091
:100278002308A2002608A30022082302031C4F29F2
:100288002208B5002408B6002508B7009C20831270
:080298000317A20A4029080027
:1002A00083120317A4010330240203185E292408D3
:1002B0002307840020308000A40A53292408230740
:1002C00084008001A40324082307A5000A30F40059
:1002D0002208F00003217808F0003030F0070317FF
:1002E00025088400700880000A30F4002208F0001D
:1002F000032170080317A2007008003A031D81292A
:080300008329A403632908000E
:100308008030831203172306F00080307002031D2B
:100318008F290030220203189329A201A3018030FB
:10032800F000803023067002031D9C2922087F3CC0
:100338000318A2297F30A2000030A30080302706CE
:10034800F00080307002031DAB290030260203182C
:10035800AF29A601A7018030F0008030270670027F
:10036800031DB82926087F3C0318BE297F30A60044
:100378000030A70080302506F00080307002031D91
:10038800C729003024020318CB29A401A501803015
:10039800F000803025067002031DD42924083F3C54
:1003A8000318DA293F30A4000030A5008030290660
:1003B800F00080307002031DE32900302802031882
:1003C800E729A801A9018030F000803029067002D1
:1003D800031DF02928083F3C0318F6293F30A800E0
:1003E8000030A90022082602F1002308031C013E60
:1003F8002702F2007108AB007208AC00240828023A
:10040800AD002508031C013E2902AE0080307206AB
:10041800F00080307002031D132A003071020318A7
:10042800222A2B08003CAB002C08031C013EAC011F
:10043800AC02FF30AF00FF30B000262A0130AF0019
:100448000030B00080302E06F00080307002031DAE
:100458002F2A00302D0203183E2A2D08003CAD003B
:100468002E08031C013EAE01AE02FF30B100FF3082
:10047800B200422A0130B1000030B200AB0DAC0D21
:100488002B10AD0DAE0D2D102208B5002408B600B6
:100498002A08B7009C208030831203172E06F0002C
:1004A80080302C067002031D5B2A2B082D020318CE
:1004B800AA2A2B08F0002C08F100F10CF00CF1131B
:1004C800711BF11770082D02B3007108031C013E5F
:1004D8002E02B4008312031723082706031D762A69
:1004E800260822060319A92A80303406F000803035
:1004F8007002031D812A00303302031C8F2A310841
:10050800A40732080318013EA5072B08B302031CF1
:10051800B4032C08B4022F082207F000230803189C
:10052800013E3007F1007008A2007108A3002D08F1
:10053800B3072E080318013EB4077008B500240855
:10054800B6002A08B7009C206E2AF82A83120317DF
:100558002D08F0002E08F100F10CF00CF113711BBE
:10056800F11770082B02B3007108031C013E2C021E
:10057800B4008312031725082906031DC52A280875
:1005880024060319F82A80303406F00080307002FF
:10059800031DD02A00303302031CDE2A2F08A207CD
:1005A80030080318013EA3072D08B302031CB40347
:1005B8002E08B40231082407F00025080318013E6C
:1005C8003207F1007008A4007108A5002B08B307D2
:1005D8002C080318013EB4072208B5007008B600BD
:0A05E8002A08B7009C20BD2A080075
:1005F200831203172408073C0318002BA72B83162A
:1006020003136E08831203172202F00083160313EA
:100612006F08031C013EF101F10283126F08F4001E
:10062200F501712070080317AA007108AB002308B6
:10063200BB002D2003172408BB0022200317A601AC
:1006420003136F08031726020318812B23087F3C2C
:1006520003182C2BA72B2308BB00112003172408F7
:10066200BB00222003172308BB002D204420700862
:10067200A70044207008A7002308BB00112003171D
:100682002408BB00222003172308BB002D200317D8
:100692002A081007F00011080318013E2B07F10089
:1006A200700883160313EB007108EC006A208A11AC
:1006B2000A12F000700883120317A800AA0A03198D
:1006C200AB0A7009A9006E2B2908A7007A2B28080B
:1006D200A7007A2B2808A7067A2B2508003A0319C7
:1006E200652B2508013A0319682B2508023A0319DC
:1006F2006B2B2708BB005F200317A30AA60A212B36
:100702002308BB00112003172408BB002220031773
:100712002308BB002D20FF300317A800A9019E2B40
:100722002808A7002808BB005F20A72B0317290869
:10073200A7002908BB005F20A72B03172508003A52
:0E0742000319912B2508013A0319972B080083
:100750000030831203172402031CB32B24087F3CB0
:10076000031CB32BB42BE32B003022020318B92B4C
:10077000A20122083F3C0318BF2B3F30A2000030EB
:1007800023020318C42BA30123083F3C0318CA2BE0
:100790003F30A300220823020318D42B2208A6000E
:1007A0002308A2002608A30022082302031CE32B2F
:1007B0002408B5002208B6002508B7009C20831243
:0807C0000317A20AD42B080064
:1007C8008312031797019801130899000030991BA9
:1007D800FF309A0080301306F0008030003A700233
:1007E8000318032C970A0319980A1308003C990068
:1007F8009A01031C9A030130931F00309A071908C5
:10080800A2001408A300502104309500003096007F
:100818001608003C031D122C1508003C03182D2C4B
:1008280015081407F20001301502F0000030031C0F
:10083800013E1602F1007008140784000008F00059
:10084800720884007008800001309502031C96032A
:100858000C2C140884002030800017081804031991
:100868004B2C950196011508140784000008203ABE
:10087800031D422C950A0319960A372C013095025C
:10088800031C96031508140784002D308000080007
:10089800803083120313F0008030031714067002AF
:1008A800031D582C13080F3C031CE02C6030A200D9
:1008B8000030A3002030A4000030A5000E3015073A
:1008C80084000008A6000030A61BFF30A7000030F7
:1008D800A61BFF30A700160A84000008A8000030F5
:1008E800A81BFF30A9000030A81BFF30A900AA01EF
:1008F8008421603083120317A2000030A300203047
:10090800A4000030A5000E301307F00014080318E7
:10091800013EF1007008150784000008A6000030A9
:10092800A61BFF30A7000030A61BFF30A700013030
:100938001302F0000030031C013E1402F10070089D
:10094800160784000008A8000030A81BFF30A90083
:100958000030A81BFF30A900AA018421603083124F
:100968000317A2000030A3002030A4000030A50027
:100978000F301307F00014080318013EF100700847
:10098800150784000008A6000030A61BFF30A7004A
:100998000030A61BFF30A7001308160784000008C4
:1009A800A8000030A81BFF30A9000030A81BFF30AA
:1009B800A9000130AA008421803083120313F000BB
:1009C8008030031714067002031DEC2C13081E3C1C
:1009D800031C6C2D8030F000803014067002031D5B
:1009E800F72C13080F3C03186C2D6030A200003060
:1009F800A3002030A4000030A50010301302F0003E
:100A08000030031C013E1402F10070081E3CF00087
:100A18007108031C013EF101F102700815078400FA
:100A28000008A6000030A61BFF30A7000030A61B58
:100A3800FF30A70001301302F0000030031C013E14
:100A48001402F1007008160784000008A80000309E
:100A5800A81BFF30A9000030A81BFF30A900AA017D
:100A68008421603083120317A2000030A3002030D5
:100A7800A4000030A5000F301302F0000030031C62
:100A8800013E1402F10070081E3CF0007108031CBE
:100A9800013EF101F1027008150784000008A60064
:100AA8000030A61BFF30A7000030A61BFF30A700B0
:100AB8001308160784000008A8000030A81BFF30A0
:100AC800A9000030A81BFF30A9000130AA0084212A
:100AD800803083120313F00080300317140670026D
:100AE800031D782D13082D3C031C002E8030F000C8
:100AF800803014067002031D832D13081E3C031852
:100B0800002E6030A2000030A3002030A400003086
:100B1800A5001F301302F2000030031C013E14022E
:100B2800F30072080F3CF0007308031C013EF1014A
:100B3800F1027008150784000008A6000030A61B03
:100B4800FF30A7000030A61BFF30A70072081E3C2C
:100B5800F0007308031C013EF101F102700816074A
:100B680084000008A8000030A81BFF30A90000304E
:100B7800A81BFF30A900AA01842160308312031743
:100B8800A2000030A3002030A4000030A5001E30D1
:100B98001302F2000030031C013E1402F300720835
:100BA8000F3CF0007308031C013EF101F1027008CC
:100BB800150784000008A6000030A61BFF30A70018
:100BC8000030A61BFF30A70072081E3CF000730817
:100BD800031C013EF101F1027008160784000008A9
:100BE800A8000030A81BFF30A9000030A81BFF3068
:100BF800A9000130AA008421803083120313F00079
:100C08008030031714067002031D0C2E13083C3C99
:100C1800031C842E8030F000803014067002031DFF
:100C2800172E13082D3C0318842E6030A2000030C4
:100C3800A3002030A4000030A5002E301302F000DD
:100C48000030031C013E1402F100700815078400EF
:100C58000008A6000030A61BFF30A7000030A61B26
:100C6800FF30A70070080F3CF0007108031C013E1C
:100C7800F101F1027008160784000008A80000308E
:100C8800A81BFF30A9000030A81BFF30A900AA014B
:100C98008421603083120317A2000030A3002030A3
:100CA800A4000030A5002D301302F0000030031C12
:100CB800013E1402F1007008150784000008A60020
:100CC8000030A61BFF30A7000030A61BFF30A7008E
:100CD80070080F3CF0007108031C013EF101F1029D
:100CE8007008160784000008A8000030A81BFF3011
:100CF800A9000030A81BFF30A9000130AA008421F8
:020D08000800E1
:100D0A000030831203171806031D8D2E00301706B4
:100D1A00031D972E1308B5001508B6001908B70069
:100D2A009C20922F831203179E019F01130815021C
:100D3A00A0001408031C013E1602A10017089C001B
:100D4A0018089D001708F0001808F100F00DF10DC1
:100D5A00701070089A0071089B007008033C9A0092
:100D6A007108031C013E9B019B021C08013EF10015
:100D7A0000300318013E1D07F20080301F06F00004
:100D8A00803072067002031DCC2E71081E020318F1
:100D9A00922F1E081307B5001C081507B60019087C
:100DAA00B7009C20831203171E081307B5001C08FE
:100DBA001502B6001908B7009C208030831203136D
:100DCA00F000803003171F067002031DEE2E1E0866
:100DDA00003C0318042F1E081302B5001C0815074F
:100DEA00B6001908B7009C20831203171E081302C5
:100DFA00B5001C081502B6001908B7009C2083121A
:100E0A0003171F081D06031D0C2F1C081E060319B5
:100E1A004C2F1C081507B5002008B5021E08150737
:100E2A00B6001908B7009C20831203171C08150284
:100E3A00B5002008B5021E081507B6001908B70044
:100E4A009C20803083120313F000803003171F06A2
:100E5A007002031D322F1E08003C03184C2F1C0879
:100E6A001507B5002008B5021E081502B6001908B4
:100E7A00B7009C20831203171C081502B50020082E
:100E8A00B5021E081502B6001908B7009C2080306A
:100E9A00831203171B06F00080307002031D572FC0
:100EAA0000301A0203186E2F1E08F0001F08F10006
:100EBA00F00DF10D7010F00DF10D70100630F00705
:100ECA000318F10A70089A0771080318013E9B0774
:100EDA008E2F1C081E02F3001D08031C013E1F0270
:100EEA00F4007308F0007408F100F00DF10D7010B1
:100EFA00F00DF10D70100A30F0070318F10A7008AE
:100F0A009A0771080318013E9B0701309C02031CD3
:0C0F1A009D039E0A03199F0ABA2E0800CE
:100F26008312031387120716031795011508073C4A
:100F3600031CAE2F1508BB002220031794011408CA
:100F46003F3C031CAC2F1308BB005F200317940A19
:100F5600A22F950A992F03130712871603179501D7
:100F66001508073C031CC82F1508BB0022200317D1
:100F7600940114083F3C031CC62F1308BB005F20D6
:0C0F86000317940ABC2F950AB32F080033
:100F9200831203171308A2001508A3001408A40063
:100FA2001708A50014211308A2001508A3001608AB
:100FB200A4001708A50014211408A2001608A30013
:100FC2001308A4001708A500A8231408A2001608F5
:0E0FD200A3001508A4001708A500A823080016
:100FE0006A208A110A128000840AEB0A0319EC0AAB
:080FF000F003031DF02F0800BF
:10100000831203179701831603136D08003A031D1B
:10101000192805308312EF00073003179200FE30C5
:1010200090000B309100203083160313EE00003047
:10103000EF00831203171708130784000008031931
:1010400038281708130784000008A2001408A3001A
:101050001508A4001608A5008A11F9228A15831222
:1010600003136F0AF000700803179407970A1928F2
:02107000080076
:1010720083160313ED0107108710871107118712DA
:101082000712831207108316880183128711071132
:101092008712071607143F3088008A110A208A1522
:1010A200C03088008A110A208A15871607123F303D
:1010B20088008A110A208A15C03088008A110A2005
:0410C2008A15080083
:1010C600831203136508031793000030931BFF3048
:1010D6009400BF309500403096008A114C248A1542
:1010E600831203133F08031793000030931BFF304E
:1010F600940020309500A03096008A114C248A1561
:10110600603083120317930000309400203095005E
:10111600003096001E30970000309800013099008C
:101126008A1185268A15BF2A603083120317A2000A
:101136000030A3002030A4000030A5006030A600D7
:101146000030A7001130A8000030A900AA018A11BA
:1011560084218A15603083120317A2000030A30091
:101166002030A4000030A5006630A6000030A7009D
:101176001430A8000030A9000130AA008A11842189
:101186008A15EE2A603083120317A2000030A300EE
:101196002030A4000030A5006630A6000030A7006D
:1011A6001430A8000030A900AA018A1184218A15EA
:1011B600603083120317A2000030A3002030A40081
:1011C6000030A5006B30A6000030A7001930A8003B
:1011D6000030A9000130AA008A1184218A15EE2A5E
:1011E600603083120317A2000030A3002030A40051
:1011F6000030A5006B30A6000030A7001930A8000B
:101206000030A900AA018A1184218A156030831250
:101216000317A2000030A3002030A4000030A50070
:101226006E30A6000030A7002030A8000030A900CC
:101236000130AA008A1184218A15EE2A60308312B1
:101246000317A2000030A3002030A4000030A50040
:101256006E30A6000030A7002030A8000030A9009C
:10126600AA018A1184218A15603083120317A2000D
:101276000030A3002030A4000030A5006B30A6008B
:101286000030A7002730A8000030A9000130AA00CE
:101296008A1184218A15EE2A603083120317A20070
:1012A6000030A3002030A4000030A5006B30A6005B
:1012B6000030A7002730A8000030A900AA018A1133
:1012C60084218A15603083120317A2000030A30020
:1012D6002030A4000030A5006630A6000030A7002C
:1012E6002C30A8000030A9000130AA008A11842100
:1012F6008A15EE2A603083120317A2000030A3007D
:101306002030A4000030A5006630A6000030A700FB
:101316002C30A8000030A900AA018A1184218A1560
:10132600603083120317A2000030A3002030A4000F
:101336000030A5006030A6000030A7002F30A800BE
:101346000030A9000130AA008A1184218A15EE2AEC
:10135600603083120317A2000030A3002030A400DF
:101366000030A5006030A6000030A7002F30A8008E
:101376000030A900AA018A1184218A1560308312DF
:101386000317A2000030A3002030A4000030A500FF
:101396005930A6000030A7002C30A8000030A90064
:1013A6000130AA008A1184218A15EE2A6030831240
:1013B6000317A2000030A3002030A4000030A500CF
:1013C6005930A6000030A7002C30A8000030A90034
:1013D600AA018A1184218A15603083120317A2009C
:1013E6000030A3002030A4000030A5005430A60031
:1013F6000030A7002730A8000030A9000130AA005D
:101406008A1184218A15EE2A603083120317A200FE
:101416000030A3002030A4000030A5005430A60000
:101426000030A7002730A8000030A900AA018A11C1
:1014360084218A15603083120317A2000030A300AE
:101446002030A4000030A5005130A6000030A700CF
:101456002030A8000030A9000130AA008A1184219A
:101466008A15EE2A603083120317A2000030A3000B
:101476002030A4000030A5005130A6000030A7009F
:101486002030A8000030A900AA018A1184218A15FB
:10149600603083120317A2000030A3002030A4009E
:1014A6000030A5005430A6000030A7001930A8006F
:1014B6000030A9000130AA008A1184218A15EE2A7B
:1014C600603083120317A2000030A3002030A4006E
:1014D6000030A5005430A6000030A7001930A8003F
:1014E6000030A900AA018A1184218A15603083126E
:1014F6000317A2000030A3002030A4000030A5008E
:101506005930A6000030A7001430A8000030A9000A
:101516000130AA008A1184218A15EE2A60308312CE
:101526000317A2000030A3002030A4000030A5005D
:101536005930A6000030A7001430A8000030A900DA
:10154600AA018A1184218A15603083120317A2002A
:101556000030A3002030A4000030A5006030A600B3
:101566000030A7001130A8000030A9000130AA0001
:101576008A1184218A15EE2A831203136408013A1C
:10158600031997286408023A0319C5286408033A20
:101596000319F3286408043A031921296408053A53
:1015A60003194F296408063A03197D296408073A86
:1015B6000319AB296408083A0319D9296408093ABA
:1015C6000319072A64080A3A0319352A64080B3AEC
:0815D6000319632A912A0800A1
:1015DE00831203136508031793005F3094008A117A
:1015EE00E4238A1503133F08031793006630940013
:1015FE008A11E4238A150313640803179300E2305B
:10160E0094008A11E4238A155F309300F53094001C
:10161E0003309500013096000020663093000C30A8
:10162E00940003309500013096000020E2309300C4
:10163E0023309400033095000130960000201230C4
:10164E00A2002330A3001430A4000130A5008A119B
:10165E00A8238A151230A2002330A3002930A4003B
:0C166E000130A5008A11A8238A1508008D
:10167A003920031793018A1193278A15A201403052
:10168A00A3003F30A4000130A5008A11A8238A15BF
:10169A009301123094003D309500233096000130BA
:1016AA0097008A11C9278A15DE3093009401013008
:1016BA0095000130960000206B309300153094009D
:1016CA0001309500013096000020E73093002A305F
:1016DA00940001309500013096000020031365083C
:1016EA00031793005F3094008A11E4238A150313C9
:1016FA003F0803179300663094008A11E4238A1581
:10170A000313640803179300E23094008A11E42358
:10171A008A155F309300F53094000330950001304C
:10172A0096000020663093000C3094000330950038
:10173A00013096000020E2309300233094000330F9
:10174A0095000130960000201230A2002330A30039
:10175A001430A4000130A5008A11A8238A1512307A
:10176A00A2002330A3002930A4000130A5008A1169
:10177A00A8238A1560309300003094002030950029
:10178A00003096001E309700003098000130990012
:08179A008A1185268A1508005A
:1017A20078263D23033083120313FB00D630FC005E
:1017B200F530FD00FD0BDB2BFC0BDB2BFB0BDB2BDE
:1017C20000000000E50A65083C3A031DF52BE5011F
:1017D200BF0A3F083C3A031DF52BBF01E40A640827
:1017E200183A031DF52BE401EF226320D32BF82BCB
:101CF00020308400453083120313F000DE30831659
:101D0000EB000D30EC008A11F0278A15A03084001A
:101D10003E30F00023308316EB000E30EC008A11C9
:101D2000F0278A15653084000A30F0006E30831683
:101D3000EB000E30EC008A11F0278A15DE308400AB
:101D40000D30F00061308316EB000E30EC008A118C
:061D5000F0278A150800CF
:1017FC0000340034003400340034003400345F34DE
:10180C00003400340034073400340734003414340A
:10181C007F3414347F34143424342A347F342A34FF
:10182C001234233413340834643462343634493477
:10183C00553422345034003405340334003400342D
:10184C0000341C342234413400340034413422340A
:10185C001C34003408342A341C342A340834083438
:10186C0008343E34083408340034503430340034F6
:10187C000034083408340834083408340034303464
:10188C00303400340034203410340834043402343E
:10189C003E345134493445343E34003442347F3480
:1018AC0040340034423461345134493446342134A8
:1018BC00413445344B3431341834143412347F34BD
:1018CC001034273445344534453439343C344A34A7
:1018DC004934493430340134713409340534033417
:1018EC00363449344934493436340634493449346D
:1018FC0029341E3400343634363400340034003489
:10190C005634363400340034003408341434223461
:10191C004134143414341434143414344134223413
:10192C00143408340034023401345134093406348C
:10193C0032344934793441343E347E3411341134E8
:10194C0011347E347F3449344934493436343E348E
:10195C0041344134413422347F34413441342234D3
:10196C001C347F3449344934493441347F3409348C
:10197C000934013401343E3441344134513432346D
:10198C007F340834083408347F34003441347F34D5
:10199C00413400342034403441343F3401347F34FA
:1019AC0008341434223441347F34403440344034CD
:1019BC0040347F340234043402347F347F340434B2
:1019CC00083410347F343E344134413441343E3495
:1019DC007F3409340934093406343E3441345134EB
:1019EC0021345E347F340934193429344634463476
:1019FC004934493449343134013401347F340134AD
:101A0C0001343F344034403440343F341F342034AC
:101A1C00403420341F347F342034183420347F3445
:101A2C006334143408341434633403340434783495
:101A3C000434033461345134493445344334003470
:101A4C0000347F34413441340234043408341034CB
:101A5C002034413441347F340034003404340234B3
:101A6C000134023404344034403440344034403483
:101A7C0000340134023404340034203454345434EB
:101A8C00543478347F34483444344434383438341F
:101A9C0044344434443420343834443444344834A6
:101AAC007F343834543454345434183408347E3439
:101ABC0009340134023408341434543454343C346E
:101ACC007F340834043404347834003444347D34A2
:101ADC00403400342034403444343D340034003439
:101AEC007F34103428344434003441347F3440344F
:101AFC0000347C3404341834043478347C340834A2
:101B0C00043404347834383444344434443438346D
:101B1C007C34143414341434083408341434143429
:101B2C0018347C347C340834043404340834483499
:101B3C00543454345434203404343F344434403416
:101B4C0020343C344034403420347C341C34203435
:101B5C00403420341C343C344034303440343C3435
:101B6C00443428341034283444340C345034503435
:101B7C0050343C344434643454344C3444340034A1
:101B8C000834363441340034003400347F340034AB
:101B9C00003400344134363408340034083408340A
:101BAC002A341C34083408341C342A3408340834DD
:101BBC004D344D344E344F345034513452345334FC
:101BCC0054345534563458345A345C345E3460349E
:101BDC0062346434663468346A346B346C346D3417
:0E1BEC006E346F347034713472347334733469
:021BFA000034B5
:101BFC00033403340434053406340734083409340C
:101C0C000A340C340F341234153418341C34203488
:101C1C00243428342B342E343134343436343734A1
:0E1C2C00383439343A343B343C343D343D34A2
:0A1C3A0074346534783474340034D7
:021C440000346A
:101C46000D340D340E340F34103411341234133471
:101C560014341534163418341A341C341E34203413
:101C660022342434263428342A342B342C342D348C
:0E1C76002E342F34303431343234333433349E
:101C84004334443445344634473449344B344D3476
:101C94004F3451345334553457345A345D346034EA
:101CA4006334663469346B346D346F347134733433
:0E1CB4007534773479347A347B347C347D3463
:081CC20053344534433400346F
:0A1CCA007434653478347434003447
:081CD40048345234533400344B
:021CDC000034D2
:0A1CDE007434653478347434003433
:081CE8004D3449344E34003440
:02400E004A2F37
:00000001FF
