:020000005D2B76
:0E000600033083120313FD00FD0B07280800D2
:0A0014000320871403208710080062
:04001E0000000800D6
:100022008312031387110711B830420488000A2093
:020032000800C4
:1000340083120313871087150711420888000A20CA
:020044000800B2
:100046007F30831203134205F1007108C200711F4D
:0E0056002F2887160712312887120716080078
:100064007F30831203134205F0007008C200871129
:100074000711BF30F0057008C20070177008C20085
:08008400700888000A20080042
:10008C00FF308316031388000F200F20831287156F
:10009C0087100715871403200808C2008710071162
:1000AC000F200F208316880183124208F0000800ED
:1000BC000030831203133C02031C71283C087F3C64
:1000CC00031C712800303D02031C71283D083F3C85
:1000DC00031C71287228C0283C08C20023203D084C
:1000EC00C200C20CC213C20CC213C20CC213112028
:1000FC003C08C200322046207008C100462070081F
:10010C00C1003D08C200C20CC213C20CC213C20C07
:10011C00C21311203C08C200322007303D05F0000C
:10012C007008BF007008F1000130F000710803196D
:10013C00A328F00D7010FF3E9D287008BF007009B9
:10014C00C000B1284008C105BD283F08C104BD2826
:10015C003F08C106BD283E08003A0319A8283E08EE
:10016C00013A0319AB283E08023A0319AE2841089C
:06017C00C2001A20080079
:0E018200073083120313FD00FD0BC528080093
:0E0190008312031328088A0027088200080043
:10019E008030831203132A06F00080307002031D94
:1001AE00DA28003029020318DE28A901AA018030BE
:1001BE00F00080302A067002031DE72829087F3CD4
:1001CE000318ED287F30A9000030AA0080302E06DB
:1001DE00F00080307002031DF62800302D02031847
:1001EE00FA28AD01AE018030F00080302E0670028C
:1001FE00031D03292D087F3C031809297F30AD000C
:10020E000030AE0080302C06F00080307002031DEE
:10021E00122900302B0203181629AB01AC018030D5
:10022E00F00080302C067002031D1F292B083F3C66
:10023E00031825293F30AB000030AC00803030066B
:10024E00F00080307002031D2E2900302F0203189B
:10025E003229AF01B0018030F000803030067002DC
:10026E00031D3B292F083F3C031841293F30AF00A7
:10027E000030B00029082D02F1002A08031C013EAF
:10028E002E02F2007108B2007208B3002B082F0282
:10029E00B4002C08031C013E3002B50080307206FB
:1002AE00F00080307002031D5E29003071020318C9
:1002BE006D293208003CB2003308031C013EB30125
:1002CE00B302FF30B600FF30B70071290130B6001F
:1002DE000030B70080303506F00080307002031D0C
:1002EE007A2900303402031889293408003CB400FE
:1002FE003508031C013EB501B502FF30B800FF30D2
:10030E00B9008D290130B8000030B900B20DB30D1F
:10031E003210B40DB50D34102908BC002B08BD00E9
:10032E003108BE005E2080303506F0008030330686
:10033E007002031DA429320834020318F129320871
:10034E00F0003308F100F10CF00CF113711BF117F2
:10035E0070083402BA007108031C013E3502BB005E
:10036E002A082E06031DBD292D0829060319F0297A
:10037E0080303B06F00080307002031DC82900302B
:10038E003A02031CD6293808AB0739080318013E78
:10039E00AC073208BA02031CBB033308BB02360893
:1003AE002907F0002A080318013E3707F1007008EC
:1003BE00A9007108AA003408BA0735080318013ECF
:1003CE00BB077008BC002B08BD003108BE005E20C4
:1003DE00B7293B2A3408F0003508F100F10CF00C77
:1003EE00F113711BF11770083202BA007108031C69
:1003FE00013E3302BB002C083006031D082A2F08CD
:10040E002B0603193B2A80303B06F0008030700229
:10041E00031D132A00303A02031C212A3608A907AD
:10042E0037080318013EAA073408BA02031CBB039F
:10043E003508BB0238082B07F0002C080318013EC4
:10044E003907F1007008AB007108AC003208BA072A
:10045E0033080318013EBB072908BC007008BD0015
:0A046E003108BE005E20022A0800DB
:100478000030831203132B02031C472A2B083F3C2E
:10048800031C472A482A752A0030290203184D2AD6
:10049800A90129087F3C0318532A7F30A90000309E
:1004A8002A020318582AAA012A087F3C03185E2A40
:1004B8007F30AA0029082A020318682A2908AD00F3
:1004C8002A08A9002D08AA0029082A02031C752A4F
:1004D8002908BC002B08BD002C08BE005E20A90A14
:0404E800682A080076
:1004EC00831203139F01C0309F0483161F179F179D
:1004FC0083122908F000F00D7010F00D7010F00D43
:10050C00701070089F041F14C1201F151F1D902A06
:10051C0000008C2A1F101E08F100F00183161E0823
:08052C00F0040030F1040800A6
:1005340083120313FB01FA01F9018030F800F10C76
:10054400F00C031CAE2A7408F90775080318750F1C
:10055400FA070318FB0A0310F01FB62A7408FA07F7
:1005640075080318750FFB07FB0CFA0CF90CF80C53
:10057400031CA12A7B08F3007A08F2007908F10031
:060584007808F0000800F9
:10058A0083120313A401831607108710871107111A
:10059A0087120712831207108316880183128711A4
:1005AA0007118712071607143F3088000A20C03047
:1005BA0088000A20871607123F3088000A20C030B8
:0605CA0088000A20080071
:1005D0008312031387120716AB012B08073C031C79
:1005E000002B2B08C2001120AA012A083F3C031C43
:1005F000FE2A2908C2001A20AA0AF52AAB0AED2A07
:1006000007128716AB012B08073C031C162B2B087F
:10061000C2001120AA012A083F3C031C142B290800
:0E062000C2001A20AA0A0B2BAB0A032B0800FB
:10062E000030831203132B02031C222B2B087F3C5A
:10063E00031C222B232B502B003029020318282BAE
:10064E00A90129083F3C03182E2B3F30A90000308A
:10065E002A020318332BAA012A083F3C0318392B10
:10066E003F30AA0029082A020318432B2908AD009F
:10067E002A08A9002D08AA0029082A02031C502BBB
:10068E002B08BC002908BD002C08BE005E20A90A5C
:04069E00432B0800E2
:1006A200C8208A110A128000840AA70A0319A80A1C
:0806B200F003031D512B0800A9
:1006BA0083120313A001A101A201A30180308316B2
:1006CA009F00FF308500C522A901E822A901403018
:1006DA00AA00AB010130AC001723A9018030AA009F
:1006EA002030AB000130AC003C22A20A0319A30A55
:1006FA0000302306031D832B7F302206031D892B1E
:10070A000130A2000030A3000230A90076223F3057
:10071A00F4000030F5009A220A30F2007008A500B1
:10072A007108A600720803199F2BA60CA50CA61324
:10073A00FF3E982BA9014030AA00220AAB00AC0167
:10074A00172301302202A9000030031C013E2302B4
:10075A00AA002008AB002108AC002208AD0023083B
:10076A00AE002508403CAF002608031C013EB0013C
:10077A00B0020130B100CF202508403CA000260875
:10078A00031C013EA101A102A9018030AA00203068
:10079A00AB000130AC003C220630FC003030FD00DA
:0E07AA00FD0BD52BFC0BD52B00007A2BDB2B87
:02400E004A2F37
:00000001FF
