:0200000038289E
:0E0006008312031322088A00210882000800DA
:1000140003208A110A128000840AA10A0319A20A81
:08002400F003031D0A28080087
:10002C00831203131A08F100981C1E2818121816B4
:06003C007108F00008004D
:10004200831603139816903083129800831687172D
:10005200071383128C1E30281A08F0002A28080081
:0E0062000030831203138C1A0130F0000800E6
:10007000831603138601013083128600193083161C
:100080009900181521208230FC00DD30FD00FD0BA9
:100090004728FC0B47280000000031207008031996
:1000A000E72816207008A0000D30FC00FB30FD0092
:1000B000FD0B5828FC0B5828000000002008733A5C
:1000C000031D6E280608F000F00D70107008860001
:1000D0000608003A031D6E28013086002008623AA7
:1000E000031DD128FF3086000630FB001330FC00D2
:1000F000AD30FD00FD0B7A28FC0B7A28FB0B7A282B
:100100000000000086010630FB001330FC00AD301B
:10011000FD00FD0B8928FC0B8928FB0B89280000BA
:100120000000FF3086000630FB001330FC00AD30CD
:10013000FD00FD0B9928FC0B9928FB0B992800006A
:10014000000086010630FB001330FC00AD30FD00DE
:10015000FD0BA828FC0BA828FB0BA828000000001A
:10016000FF3086000630FB001330FC00AD30FD0090
:10017000FD0BB828FC0BB828FB0BB82800000000CA
:1001800086010630FB001330FC00AD30FD00FD0B96
:10019000C728FC0BC728FB0BC72800000000013054
:1001A000860020086F3A031DE728FF3086000630DE
:1001B000FB001330FC00AD30FD00FD0BDD28FC0B17
:1001C000DD28FB0BDD2800000000013086004D28F3
:0201D000E8281D
:02400E004A2F37
:00000001FF
