:020000003D2A97
:0E000600033083120313FD00FD0B07280800D2
:0400140000000800E0
:0A0018000320861403208610080060
:100022008312031386108615061103173008031373
:0600320088000C2008000C
:100038007F30831203173005F1007108B000711F7B
:0E0048002828061686122A2806128616080098
:10005600FF308316031388000A200A2083128615B0
:10006600861006158614032008080317B0008610AC
:1000760006110A200A208316031388018312031728
:060086003008F000080044
:0E008C008312031720088A001F088200080054
:10009A0083120313FB01FA01F9018030F800F10C15
:1000AA00F00C031C61287408F90775080318750F0A
:1000BA00FA070318FB0A0310F01F69287408FA07E5
:1000CA0075080318750FFB07FB0CFA0CF90CF80CF2
:1000DA00031C54287B08F3007A08F2007908F1001F
:0600EA007808F000080098
:1000F0007F30831203173005F0007008B0008611BE
:100100000611BF30F0057008B00070177008B0001D
:0A0110007008031388000C2008009B
:10011A008312031386110611B83003173004031330
:06012A0088000C20080013
:10013000831203172808073C03189F2836291A083A
:100140002602F0001B08031C013EF101F102190810
:10015000F400F5014D2070080317AE007108AF00E0
:100160002708B000782003172808B0008D20031757
:10017000AA0119082A020318112927087F3C03182D
:10018000C22836292708B0001C202808B0008D207E
:1001900003172708B00078202B207008AB002B2015
:1001A0007008AB002708B0001C202808B0008D2084
:1001B00003172708B000782003172E081C07F0004B
:1001C0001D080318013E2F07F10070089F007108F9
:1001D000A00046208A110A12F0007008AC00AE0A96
:1001E0000319AF0A7009AD00FE282D08AB000A29DB
:1001F0002C08AB000A292C08AB060A292908003A6A
:100200000319F5282908013A0319F8282908023AA0
:100210000319FB282B08B00011200317A70AAA0A0C
:10022000B9282708B0001C202808B0008D2003172B
:100230002708B0007820FF300317AC00AD012D294E
:100240002C08AB002C08B0001120362903172D080C
:10025000AB002D08B0001120362903172908003AF9
:0E026000031920292908013A0319262908004C
:10026E0083120317A5011808003A031D4A29053009
:10027E00990007309E009C309C0003309D0020307A
:10028E009A0000309B0025082107840000080319FE
:10029E0064292508210784000008A6002208A7006B
:1002AE002308A8002408A900982083120317190A0E
:0C02BE00F0007008A207A50A4A290800F9
:1002CA0083120313061286160317A3012308073C99
:1002DA00031C80292308B0008D200317A2012208DD
:1002EA003F3C031C7E292108B00011200317A20AF3
:1002FA007429A30A6B2986120616A3012308073C50
:10030A00031C98292308B0008D200317A201220894
:10031A003F3C031C96292108B00011200317A20AAA
:08032A008C29A30A83290800B5
:1003320083120317A10165210230FB000430FC0087
:10034200BA30FD00FD0BA329FC0BA329FB0BA3294B
:1003520000004030A1001930A200A3010130A40026
:1003620037210330FB008A30FC005530FD00FD0BC5
:10037200B829FC0BB829FB0BB829000000004D304E
:10038200A100A2010230A3000130A4003721B53040
:10039200A100A2010330A3000130A4003721A03044
:1003A200A100A2010430A3000130A4003721623071
:1003B200A100A2010730A3000130A40037210D30B3
:1003C200FC00FB30FD00FD0BE429FC0BE4290000DE
:0403D200000008001F
:1003D600831203131A08F100981CF3291812181631
:0603E6007108F0000800A0
:0E03EC000030831203138C1A0130F000080059
:1003FA008316031398169030831298008316871772
:10040A00071383128C1E0C2A1A08F000062A080009
:10041A008312031798018316031306108610861198
:10042A000611061286128312061083168801831299
:10043A00861106110612861606143F3088000C2013
:10044A00C03088000C20061686123F3088000C2027
:08045A00C03088000C200800EE
:1004620046208A110A128000840A9F0A0319A00AF0
:08047200F003031D312A08000C
:10047A0024260D22831689018312890119308316D5
:10048A0099001815FD210D30FC00FB30FD00FD0B15
:10049A004C2AFC0B4C2A000000000317A10165211D
:1004AA003130A1001430A2000330A3000130A400AF
:1004BA0037210D30FC00FB30FD00FD0B622AFC0BDE
:1004CA00622A00000000F62170080319952BEB211F
:1004DA007008EF000D30FC00FB30FD00FD0B732AA5
:1004EA00FC0B732A000000006F08703A031D952B5D
:1004FA009921F62170080319942BEB217008EF005B
:10050A000D30FC00FB30FD00FD0B892AFC0B892A0B
:10051A00000000006F08613A031DC42A2408003A4B
:10052A00031DAE2A20300317A1006630A200023054
:10053A00A3000130A40037212530A1006630A200B3
:10054A000230A3000130A400372101300313A400B4
:10055A00C32A2D300317A1006630A2000230A3007F
:10056A000130A40037212930A1006630A2000230F0
:10057A00A3000130A40037210313A401572B6F08ED
:10058A00623A031DF92A2808003A031DE32A663055
:10059A000317A1006630A2000330A3000130A400B3
:1005AA003721EA30A1006630A2000330A3000130EF
:1005BA00A400372101300313A800F82AE6300317F4
:1005CA00A1006630A2000330A3000130A400372145
:1005DA00E230A1006630A2000330A3000130A4007B
:1005EA0037210313A801572B6F08633A031D2D2BDC
:1005FA006E08003A031D172B14300317A10066304A
:10060A00A2000430A300A4013721ED30A100663016
:10061A00A2000430A3000130A400372101300313E3
:10062A00EE002C2B10300317A1006630A200043014
:10063A00A3000130A40037216A30A1006630A2006D
:10064A000430A3000130A40037210313EE01572B15
:10065A006F086F3A031D572B0317A1016521D93083
:10066A00A1002830A2000230A3000130A4003721E3
:10067A000630FB001330FC00AD30FD00FD0B432BB0
:10068A00FC0B432BFB0B432B00000000A10165214F
:10069A00CA30A1001430A2000330A3000130A40024
:1006AA003721952B03136E08003A031D732B280874
:1006BA00003A031D692B2408003A031D662B8901A1
:1006CA00682B01308900722B2408003A031D702B15
:1006DA0002308900722B033089008A2B2808003ADD
:1006EA00031D812B2408003A031D7E2B0430890048
:1006FA00802B053089008A2B2408003A031D882B99
:10070A00063089008A2B073089000D30FC00FB3047
:10071A00FD00FD0B8E2BFC0B8E2B000000007E2AA9
:04072A00682A962B78
:100C480020308400463083120313F0007C300317F1
:100C58009F000530A0003122A03084002A30831282
:100C6800F000C23003179F000530A0003122663023
:100C7800840004308312F0000F3003179F00063001
:100C8800A0003122CA30840018308312F000EC3002
:100C980003179F000530A00031226A308400043019
:100CA8008312F0001B3003179F000630A00031228A
:100CB800E23084000B308312F000043003179F00E9
:100CC8000630A00031226E30840001308312F0001B
:100CD800223003179F000630A000312210308317FE
:100CE800840004308312F000173003179F00063089
:100CF800A00031228313ED30840003308312F0000A
:100D08001F3003179F000630A000312214308317CC
:100D1800840004308312F000133003179F0006305C
:080D2800A00031228313080032
:1007380000340034003400340034003400345F34B2
:1007480000340034003407340034073400341434DF
:100758007F3414347F34143424342A347F342A34D4
:10076800123423341334083464346234363449344C
:100778005534223450340034053403340034003402
:1007880000341C34223441340034003441342234DF
:100798001C34003408342A341C342A34083408340D
:1007A80008343E34083408340034503430340034CB
:1007B8000034083408340834083408340034303439
:1007C8003034003400342034103408340434023413
:1007D8003E345134493445343E34003442347F3455
:1007E800403400344234613451344934463421347D
:1007F800413445344B3431341834143412347F3492
:100808001034273445344534453439343C344A347B
:1008180049344934303401347134093405340334EB
:100828003634493449344934363406344934493441
:1008380029341E340034363436340034003400345D
:100848005634363400340034003408341434223436
:1008580041341434143414341434143441342234E8
:100868001434083400340234013451340934063461
:1008780032344934793441343E347E3411341134BD
:1008880011347E347F3449344934493436343E3463
:1008980041344134413422347F34413441342234A8
:1008A8001C347F3449344934493441347F34093461
:1008B8000934013401343E34413441345134323442
:1008C8007F340834083408347F34003441347F34AA
:1008D800413400342034403441343F3401347F34CF
:1008E80008341434223441347F34403440344034A2
:1008F80040347F340234043402347F347F34043487
:10090800083410347F343E344134413441343E3469
:100918007F3409340934093406343E3441345134BF
:1009280021345E347F34093419342934463446344A
:100938004934493449343134013401347F34013481
:1009480001343F344034403440343F341F34203481
:10095800403420341F347F342034183420347F341A
:10096800633414340834143463340334043478346A
:100978000434033461345134493445344334003445
:1009880000347F34413441340234043408341034A0
:100998002034413441347F34003400340434023488
:1009A8000134023404344034403440344034403458
:1009B80000340134023404340034203454345434C0
:1009C800543478347F3448344434443438343834F4
:1009D800443444344434203438344434443448347B
:1009E8007F343834543454345434183408347E340E
:1009F80009340134023408341434543454343C3443
:100A08007F340834043404347834003444347D3476
:100A1800403400342034403444343D34003400340D
:100A28007F34103428344434003441347F34403423
:100A380000347C3404341834043478347C34083476
:100A48000434043478343834443444344434383442
:100A58007C341434143414340834083414341434FE
:100A680018347C347C34083404340434083448346E
:100A7800543454345434203404343F3444344034EB
:100A880020343C344034403420347C341C3420340A
:100A9800403420341C343C344034303440343C340A
:100AA800443428341034283444340C34503450340A
:100AB80050343C344434643454344C344434003476
:100AC8000834363441340034003400347F34003480
:100AD80000340034413436340834003408340834DF
:100AE8002A341C34083408341C342A3408340834B2
:080AF8002034203420340034C6
:020B00000034BF
:060B02004F344E340034B4
:020B08000034B7
:080B0A004F3446344634003438
:080B12002034203420340034AB
:100B1A0045344E34543445345234203450344134FC
:0E0B2A005334533457344F345234443400346F
:100B3800573445344C3443344F344D3445342034E1
:0A0B480048344F344D344534003476
:100B520042344534443452344F344F344D342034CB
:100B62004C3449344734483454342034203420340B
:0A0B720020344F344634463400347A
:080B7C004F34553454340034A9
:100B84004B34493454344334483445344E3420349B
:100B940042344F3449344C344534523420342034B4
:0A0BA40020344F3446344634003448
:100BAE00423441345434483452344F344F344D343B
:100BBE002034463441344E34203420342034203412
:0A0BCE0020344F344634463400341E
:100BD80045344E345434453452342034503441343E
:0E0BE8005334533457344F34523444340034B1
:100BF60047344F344F344434203442345934453426
:020C06000034B8
:080C08004F3446344634003439
:080C10002034203420340034AC
:060C18004F344E3400349D
:080C1E0020342034203400349E
:080C26004F344634463400341B
:080C2E0020342034203400348E
:080C36004F344634463400340B
:060C3E004F344E34003477
:020C440000347A
:02400E00022F7F
:00000001FF
