:020000003028A6
:0E0006008312031326088A00250882000800D2
:1000140003208A110A128000840AA50A0319A60A79
:08002400F003031D0A28080087
:10002C008316031398181C2800001628831227081F
:04003C00990008001F
:10004000831603139816903083129800831687172F
:10005000071383128C1E2F281A08F0002928080085
:10006000013083120313A0000130A1000130A2006F
:100070000130A3000130A400FF3083168600193040
:100080009900181520200630FB001330FC00AD301D
:10009000FD00FD0B4928FC0B4928FB0B49280000FB
:1000A00000000630FB001330FC00AD30FD00FD0BFE
:1000B0005728FC0B5728FB0B572800000000061C94
:1000C0006B282208003A031D6B287030A700162009
:1000D0000130A2005128061876282208013A031D93
:1000E00076287030A7001620A2015128861C82288D
:1000F0002308003A031D82286130A7001620013032
:10010000A300512886188D282308013A031D8D2845
:100110006130A7001620A3015128061D9928240844
:10012000003A031D99286230A70016200130A40070
:1001300051280619A4282408013A031DA428623076
:10014000A7001620A4015128861DB0282108003AD6
:10015000031DB0286330A70016200130A1005128EC
:100160008619BB282108013A031DBB286330A7006C
:100170001620A1015128061EC7282008003A031D99
:10018000C7286F30A70016200130A0005128061A9A
:10019000D2282008013A031DD2286F30A70016206C
:0801A000A00151285128D328C9
:02400E004A2F37
:00000001FF
