:020000001628C0
:0E0006008312031321088A00200882000800DC
:1000140003208A110A128000840AA00A0319A10A83
:08002400F003031D0A28080087
:10002C00013083120313A2000030A3008030A4001F
:10003C000030A5008316860183128601F5018030FD
:10004C007506F0008030043A70020318482802301C
:10005C00FB000430FC00BA30FD00FD0B3328FC0B18
:10006C003328FB0B3328000022080607F000240875
:10007C0070078600A20DA30D2210A50CA40CA513CD
:10008C00F50A2528F50180307506F0008030043A19
:10009C00700203187A280230FB000430FC00BA30DE
:1000AC00FD00FD0B5728FC0B5728FB0B57280000B5
:1000BC002208F3002308F400F40CF30CF413730877
:1000CC00A2007408A3002408F0002508F100F00D2C
:1000DC00F10D70107008A4007108A5007308F007EA
:0C00EC0070088602F50A492824287B28A9
:02400E004A2F37
:00000001FF
