:020000001628C0
:0E0006008312031321088A00200882000800DC
:1000140003208A110A128000840AA00A0319A10A83
:08002400F003031D0A28080087
:10002C0083160313860183128601F1018030710659
:10003C00F00080300A3A700203187C2886090230DE
:10004C00FB000430FC00BA30FD00FD0B2B28FC0B30
:10005C002B28FB0B2B280000553086000230FB00B0
:10006C000430FC00BA30FD00FD0B3A28FC0B3A289A
:10007C00FB0B3A28000086090230FB000430FC0020
:10008C00BA30FD00FD0B4828FC0B4828FB0B482818
:10009C000000C33086000230FB000430FC00BA3094
:1000AC00FD00FD0B5728FC0B5728FB0B57280000B5
:1000BC0086090230FB000430FC00BA30FD00FD0B59
:1000CC006528FC0B6528FB0B6528000086010230B7
:1000DC00FB000430FC00BA30FD00FD0B7328FC0B58
:0E00EC007328FB0B73280000F10A1C287C28E7
:02400E004A2F37
:00000001FF
