:040000008A157329C1
:0E000600F201F101F001F801F30100300800F1
:100014007B15FB1F14280130F300F201F101F001FC
:08002400FA0DF20CFF30080098
:08002C00FA1FF2130030080076
:10003400FB14FB1F2428FF30F300F200F100F00052
:08004400FA0DF20CFF30080078
:10004C007C185C28FC182D287C197B282628A001FC
:10005C007208031D4D287108F2007008F100780831
:10006C00F000F801A0157208031D4D287108F2006C
:10007C007008F100F001A01120167208031D4D2824
:10008C007108F200F101A015720803196F282008FD
:10009C00F302031D031C73280310F21B5C28F80DDC
:1000AC00F00DF10DF20DF30B532873287B1B701C14
:1000BC007728F81F7728F00A0319F10A0319F20AB6
:1000CC00031D7728F20CF10CF00CF30A03197B28B2
:1000DC0077280130FC0003207E280230FC000A2027
:1000EC007E280430FC0016207E280830FC001A20E4
:0400FC0000000800F8
:0E010000033083120313FD00FD0B842808005A
:10010E00A0017208031D9C287108F2007008F1000E
:10011E00F001A0157208031D9C287108F200F10170
:10012E00A011201672080319AA282008F302031D35
:10013E00031CAE280310F21BB228F00DF10DF20DC8
:10014E00F30BA228AE280130FC000320B5280230A4
:0E015E00FC000A20B5280430FC001620080022
:04016C000000080087
:100170007B14FB1FC328F201FA1FFF30F200F100CD
:0A018000F000FA0DF20CFF30080049
:0A018A0080200616802006120800EF
:100194008312031372087606A000F801F9017308AC
:1001A4007702031CED287708FD007308F7007D082B
:1001B400F3007608FD007208F6007D08F200750869
:1001C400FD007108F5007D08F1007408FD00700859
:1001D400F4007D08F0007708031966297208FA0014
:1001E400F217F61777087302F7000319202908306D
:1001F4007702031C1629F7007408F9007508F40047
:100204007608F500F60108307702031C1629F7007A
:100214007408F9007508F400F50108307702031C2E
:1002240016297A08F2006629770803192029031091
:10023400F60CF50CF40CF90CF70B1929A01F2D2959
:10024400F909F409F509F609F90A0319F40A031975
:10025400F50A0319F60A7908F80774080318740FE5
:10026400F00775080318750FF10776080318760F61
:10027400F207A01B4629031C5629F20CF10CF00CC2
:10028400F80CF30F5629622903185A29F809F009C2
:10029400F109F209F80A0319F00A0319F10A03191A
:1002A400F20A8030FA065E290130FC002620682913
:1002B4000230FC00262068290430FC0087206829CD
:1002C4000830FC001A2068290030FC0000000800F7
:1002D4007F30831203134905F0007008C90006112A
:1002E4008611BF30F0057008C90070177008C90086
:0802F40070088800C520080015
:1002FC007F30831203134905F1007108C900711F87
:0E030C008A29061486108C2906108614080013
:10031A00FF30831603138800B620B6208312061511
:10032A0006128615061680200808C90006128611CC
:10033A00B620B6208316880183124908F000080007
:10034A0083120313FA017308031D7A147708031D35
:10035A00FA147A080319F129033A0319BC297A18FD
:10036A00B929F61FEF29ED29F21FED29EF297208A5
:10037A008039FA00F21376088039F6137A060319DF
:10038A00CA297A080319ED29EF2977087302031994
:10039A00D129031CE529E929760872020319D8290B
:1003AA00031CE529E929750871020319DF29031CD1
:1003BA00E529E929740870020319F1290318E929C2
:1003CA00FA080319EF29ED29FA080319ED29EF298B
:1003DA00031408000310080003140315080008009A
:1003EA008312031306120615861149088800C520D0
:0203FA000800F9
:1003FC008312031306118611B83049048800C520F6
:02040C000800E6
:06040E00FB15FF300800A1
:10041400831203137008F8007108F0007208F100E9
:100424007308F200F301FB01FC019E30F300FA01B2
:10043400F21F282AF809F009F109F209F80A031948
:10044400F00A0319F10A0319F20AFA170230FC0040
:040454002620080056
:0E0458008312031326088A002508820008007C
:1004660083120313FB01FC01F80173080319AB2A7D
:100476007208FA00F2179E30F302F31F9B2AF30963
:10048600F30A08307302031C702AF300F80D700893
:10049600F8007108F0007208F100F20108307302EA
:1004A600031C702AF300F80D7008F8007108F000BC
:1004B600F10108307302031C702AF300F80D70086E
:1004C600F800F00108307302031C702AF300F80DDF
:1004D600F8017308031D03107A2A730803197A2A90
:1004E6000310F20CF10CF00CF80CF30B732A7B1BC7
:1004F600781C882A031C882AF80A0319F00A0319AB
:10050600F10A0319F20AF21BA82AFA1FAB2AF2090A
:10051600F109F009F809F80A0319F00A0319F10AB2
:100526000319F20AAB2AF201F101F001F801AB2A34
:100536007B14FB1FAE2AF201FA1FAE2AF200F1006D
:10054600F000F800FA0DF20CAE2A0130FC00B02AD9
:100556000030FC00B02AFF30FC00FC080319B42A66
:10056600B8207208F3007108F2007008F1007808EC
:04057600F000080089
:10057A0083120313FB017308031D77080319142B55
:10058A0072087606FA007708F3077E30031CD12A30
:10059A00F3020318172BD42AF302031C1A2B72082E
:1005AA00F8007108FC007008FD00F817F617031030
:1005BA00F201F101F0011830A0007D1CEE2A740846
:1005CA00F00775080318750FF10776080318760FF8
:1005DA00F207F20CF10CF00CF80CFC0CFD0C0310F9
:1005EA00A00BE22AF21BFE2AF80DF00DF10DF20D16
:1005FA00F3037B1B701C102BF81F102BF00A031936
:10060A00F10A0319F20A031D102BF20CF10CF00C7B
:10061A00F30A0319172BFA1FF21300301C2B0130AF
:10062A0003201C2B02301A201C2B04300A20000045
:02063A000800B6
:0C063C00831203138030F606CA20080069
:10064800831203134008F000F101F201F301FF30B7
:10065800F0050030F1057008C5007108C6007F304C
:100668007002F2000030031C013E7102F3007208B0
:10067800C5007308C60080307306F0008030700231
:10068800031D482B0030720203186C2BF401F5018E
:10069800F601F7013D08F0003E08F1003F08F200BE
:1006A8004008F300A521013003180030F00070085D
:1006B8000319672B0030F0000030F1008030F200A1
:1006C8007F30F300C12BF001F101F201F301C12BDE
:1006D8004608003C031D722B4508183C03187D2B67
:1006E8003D08F0003E08F1003F08F2004008F30022
:1006F800C12B3D08F0003E08F1003F08F200400819
:10070800F30033220A227008C1007108C20072087F
:10071800C3007308C4007008F4007108F50072087B
:10072800F6007308F7003D08F0003E08F1003F08A6
:10073800F2004008F300A521013003180030F00052
:1007480070080319B92B0030F4000030F5000030B0
:10075800F6007F30F7004108F0004208F100430836
:10076800F2004408F3001E23C12B4108F0004208A0
:0C077800F1004308F2004408F300080000
:10078400831203134308F0004408F100F00DF10D47
:100794007010F00DF10D70104108F00742080318B5
:1007A400013EF1077008A5007108A6002C228A11E9
:1007B4000A12C500A50A0319A60A2C228A110A12D4
:1007C400C600A50A0319A60A2C228A110A12C70018
:1007D400A50A0319A60A2C228A110A12C800430882
:1007E40044040319412C3D08F0003E08F1003F0881
:1007F400F2004008F3004508F4004608F5004708F5
:10080400F6004808F700BD220130C302031CC403EC
:100814004308F4004408F500F40DF50D7410F40DCC
:10082400F50D74104108F40742080318013EF5075A
:100834007408A5007508A6002C228A110A12F40077
:10084400A50A0319A60A2C228A110A12F500A50A80
:100854000319A60A2C228A110A12F600A50A031902
:10086400A60A2C228A110A12F700CA207008C500B1
:100874007108C6007208C7007308C800F12B450848
:10088400F0004608F1004708F2004808F3000800A9
:100894000030831203133D02031C5D2C3D087F3C92
:1008A400031C5D2C00303E02031C5D2C3E083F3CC3
:1008B400031C5D2C5E2CAC2C3D08C9007E213E0837
:1008C400C900C90CC913C90CC913C90CC913FE2129
:1008D4003D08C9006A218D217008C2008D2170086D
:1008E400C2003E08C900C90CC913C90CC913C90CFC
:1008F400C913FE213D08C9006A2107303E05F000F6
:100904007008C0007008F1000130F000710803198C
:100914008F2CF00D7010FF3E892C7008C0007009F8
:10092400C1009D2C4108C205A92C4008C204A92C71
:100934004008C206A92C3F08003A0319942C3F082A
:10094400013A0319972C3F08023A03199A2C4208DA
:06095400C900F5210800B6
:10095A00831203137408003A031DC82C7508003A61
:10096A00031DC82C7608003A031DC82C7708003AE4
:10097A00031DC82CFF30F000FF30F1007F30F20079
:10098A00FF30F300632D8312031377080319572DE1
:10099A00730803195A2D720876068039FA00F2177D
:1009AA00F617A0017208F8007108FC007008FD0033
:1009BA007408FD027508031C750FFC027608031CF7
:1009CA00760FF802F801FC01FD01031CF32C031059
:1009DA00F20CF10CF00CF80C0130A0007708F302CD
:1009EA00031CFD2C7E302007F30703185D2D022D12
:1009FA007E302007F307031C602D1830FA07FD0D1F
:100A0A00FC0DF80DF00DF10DF20DA00D7408F002B9
:100A1A007508031C750FF1027608031C760FF202A3
:100A2A00760DA004201C1B2D7D14262D7408F007BA
:100A3A0075080318750FF10776080318760AF20786
:100A4A007D10FA031F307A05031D042D7B1B7D1CC4
:100A5A004D2D0310F00DF10DF20DA00D7408F002EA
:100A6A007508031C750FF1027608031C760FF20253
:100A7A00760D20040139FD070318FC0A0319F80A48
:100A8A00031D4D2DF80CFC0CFD0CF30A03195D2D0A
:100A9A00FA1FF8137808F2007C08F1007D08F000CC
:100AAA000030622D01300722622D02300320622DB0
:0E0ABA0004301A20622D08300A2000000800C7
:100AC80083120313B201F401F501F601F7012A08B4
:100AD800F0002B08F1002C08F2002D08F300A521E6
:100AE800013003180030F00070080319852D00301C
:100AF800AA060030AB068030AC060030AD060130E7
:100B0800B2002A08F0002B08F1002C08F2002D088A
:100B1800F3008330F400F930F5002230F6007C3021
:100B2800F700BD227008AA007108AB007208AC007B
:100B38007308AD007008BD007108BE007208BF00E0
:100B48007308C00024237008F4007108F5007208C7
:100B5800F6007308F7002A08F0002B08F1002C08AB
:100B6800F2002D08F3001E230030F4000030F500D9
:100B78000030F6008130F700BD227008AA00710825
:100B8800AB007208AC007308AD007008F40071087F
:100B9800F5007208F6007308F7000030F000003026
:100BA800F1000030F2008030F300A5210130031875
:100BB8000030F00070080319FF2D0030F4000030F9
:100BC800F5000030F6008030F7002A08F0002B0806
:100BD800F1002C08F2002D08F3001E237008AA006B
:100BE8007108AB007208AC007308AD003208013020
:100BF800031D0030B2002A08F4002B08F5002C0869
:100C0800F6002D08F7000030F0000030F100003049
:100C1800F2007F30F300A521013003180030F00006
:100C280070080319302E2A08F4002B08F5002C0848
:100C3800F6002D08F7000030F0000030F100003019
:100C4800F2008030F3001E237008AA007108AB0080
:100C58007208AC007308AD002A08F0002B08F100F8
:100C68002C08F2002D08F3002A08F4002B08F500E0
:100C78002C08F6002D08F700BD227008AE00710898
:100C8800AF007208B0007308B1007008BD007108A9
:100C9800BE007208BF007308C0008730C10007306B
:100CA800C2000430C3000030C400C2232A08F40084
:100CB8002B08F5002C08F6002D08F700BD22700857
:100CC800AA007108AB007208AC007308AD002E08CA
:100CD800BD002F08BE003008BF003108C0009B309F
:100CE800C1000730C2000330C3000030C400C22373
:100CF8007008F4007108F5007208F6007308F70030
:100D08002A08F0002B08F1002C08F2002D08F30047
:100D1800AD247008AA007108AB007208AC00730813
:100D2800AD0032080319A52E00302A06F000003065
:100D38002B06F10080302C06F20000302D06F3005F
:100D4800AD2E2A08F0002B08F1002C08F2002D081F
:040D5800F30008009C
:100D5C0083120313FB0173080319EB2E7208FA00BC
:100D6C00F2178E30F302F31FEE2EF309F30A08305C
:100D7C007302031CD12EF300F10D7208F100F20185
:100D8C0008307302031CD12EF300F10DF10173082E
:100D9C00031D0310D92E73080319D92E0310F20C5E
:100DAC00F10CF30BD42E7B1B711CE32E031CE32ED6
:100DBC00F10A0319F20AF21BFA2EFA1FFD2EF209A0
:100DCC00F109F10A0319F20AFD2EF201F101FD2ECF
:100DDC007B14FB1F002FF201FA1F002FFF30F200D3
:100DEC00F100FA0DF20C002F0130FC00022F003044
:100DFC00FC00022FFF30FC00FC080319062FB82062
:0A0E0C007108F0007208F100080000
:100E16002C228A110A128000840AA50A0319A60A3E
:080E2600F003031D0B2F08006F
:100E2E00831203137008F8007108F000F101F2014B
:100E3E00F301FB01FC019630F300FA01F01F2D2F98
:100E4E00F809F009F80A0319F00AFA177008F10008
:0C0E5E007808F000F801F201872008007D
:100E6A008312031306108614AC012C08073C031CDA
:100E7A004D2F2C08C900FE21AB012B083F3C031C57
:100E8A004B2F2A08C900F521AB0A422FAC0A3A2F88
:100E9A0086100614AC012C08073C031C632F2C088F
:100EAA00C900FE21AB012B083F3C031C612F2A0815
:0E0EBA00C900F521AB0A582FAC0A502F0800D2
:100EC80083120313A10183168612061206118611D6
:100ED8000610861083128612831688018312061163
:100EE80086110610861486163F308800C520C0304B
:100EF8008800C520061486103F308800C520C03001
:060F08008800C52008006E
:101000008030831203132B06F00080307002031D22
:101010000B2800302A0203180F28AA01AB018030E8
:10102000F00080302B067002031D18282A087F3C30
:1010300003181E287F30AA000030AB0080302F0636
:10104000F00080307002031D272800302E020318A4
:101050002B28AE01AF018030F00080302F067002E7
:10106000031D34282E087F3C03183A287F30AE0039
:101070000030AF0080302D06F00080307002031D7C
:10108000432800302C0203184728AC01AD01803002
:10109000F00080302D067002031D50282C083F3CC4
:1010A000031856283F30AC000030AD0080303106C8
:1010B000F00080307002031D5F28003030020318FA
:1010C0006328B001B1018030F00080303106700239
:1010D000031D6C2830083F3C031872283F30B000D5
:1010E0000030B1002A082E02F1002B08031C013E3B
:1010F0002F02F2007108B3007208B4002C0830020D
:10110000B5002D08031C013E3102B6008030720686
:10111000F00080307002031D8F2800307102031828
:101120009E283308003CB3003408031C013EB40180
:10113000B402FF30B700FF30B800A2280130B7007A
:101140000030B80080303606F00080307002031D99
:10115000AB28003035020318BA283508003CB5002A
:101160003608031C013EB601B602FF30B900FF305D
:10117000BA00BE280130B9000030BA00B30DB40D7A
:101180003310B50DB60D35102A08BD002C08BE0071
:101190003208BF008A114A248A1580303606F000D2
:1011A000803034067002031DD72833083502031837
:1011B00026293308F0003408F100F10CF00CF1138B
:1011C000711BF11770083502BB007108031C013E4A
:1011D0003602BC002B082F06031DF0282E082A0615
:1011E0000319252980303C06F00080307002031D71
:1011F000FB2800303B02031C09293908AC073A08D8
:101200000318013EAD073308BB02031CBC033408BE
:10121000BC0237082A07F0002B080318013E3807E4
:10122000F1007008AA007108AB003508BB0736084A
:101230000318013EBC077008BD002C08BE00320830
:10124000BF008A114A248A15EA2872293508F0005D
:101250003608F100F10CF00CF113711BF117700856
:101260003302BB007108031C013E3402BC002D0890
:101270003106031D3D2930082C06031972298030E0
:101280003C06F00080307002031D482900303B020C
:10129000031C56293708AA0738080318013EAB0774
:1012A0003508BB02031CBC033608BC0239082C07F6
:1012B000F0002D080318013E3A07F1007008AC0059
:1012C0007108AD003308BB0734080318013EBC07A2
:1012D0002A08BD007008BE003208BF008A114A24E7
:0612E0008A153729080001
:1012E6008A1164278A15AA018A1135278A15A4014D
:1012F600AA018A1135278A15A90180302906F0002E
:1013060080307F3A70020318DC292408AA000030D6
:10131600AA1BFF30AB002708AC002808AD00240844
:10132600013EAE00AF010318AF0A0030A41BFF3028
:10133600AF072208B0002308B1000130B200002038
:101346002208A7002308A8002408F0000030F01B9C
:10135600FF30F1008A1117278A157008AA00710854
:10136600AB007208AC007308AD008A1164258A15BB
:101376000030F4000030F5004830F6008530F70004
:101386008A11BD228A158A11AE268A157008A20016
:101396007108A3000230FB008630FC009930FD0086
:1013A600FD0BD329FC0BD329FB0BD329A40AA90ACD
:0413B6008029DC2985
:100F0E00EC34F3344A3490343534953495348F348C
:100F1E001734C1345C348B34FD34DB34ED34863419
:080F2E007234B3343334803413
:100F36002B343434013490347F349D3430348B3444
:100F4600E734FF34593485340034003400347F34B8
:02400E004A2F37
:00000001FF
