:02000000282AAC
:0E000600033083120313FD00FD0B07280800D2
:0400140000000800E0
:0A0018000320861403208610080060
:10002200831203138610861506110317590803134A
:0600320088000C2008000C
:100038007F30831203175905F1007108D900711F29
:0E0048002828061686122A2806128616080098
:10005600FF308316031388000A200A2083128615B0
:10006600861006158614032008080317D900861083
:1000760006110A200A208316031388018312031728
:060086005908F00008001B
:0E008C008312031749088A0048088200080002
:10009A0083120313FB01FA01F9018030F800F10C15
:1000AA00F00C031C61287408F90775080318750F0A
:1000BA00FA070318FB0A0310F01F69287408FA07E5
:1000CA0075080318750FFB07FB0CFA0CF90CF80CF2
:1000DA00031C54287B08F3007A08F2007908F1001F
:0600EA007808F000080098
:1000F0007F30831203175905F0007008D90086116C
:100100000611BF30F0057008D90070177008D900CB
:0A0110007008031388000C2008009B
:10011A008312031386110611B83003175904031307
:06012A0088000C20080013
:10013000831203175108073C03189F2836294408E7
:100140004F02F0004508031C013EF101F102460890
:10015000F400F5014D2070080317D7007108D8008E
:100160005008D900782003175108D9008D200317B3
:10017000D301460853020318112950087F3C031885
:10018000C22836295008D9001C205108D9008D20DA
:1001900003175008D90078202B207008D4002B209A
:1001A0007008D4005008D9001C205108D9008D20B7
:1001B00003175008D9007820031757084207F000AA
:1001C00043080318013E5807F1007008C800710881
:1001D000C90046208A110A12F0007008D500D70A1B
:1001E0000319D80A7009D600FE285608D4000A2937
:1001F0005508D4000A295508D4060A295208003A9D
:100200000319F5285208013A0319F8285208023A4E
:100210000319FB285408D90011200317D00AD30A68
:10022000B9285008D9001C205108D9008D20031787
:100230005008D9007820FF300317D500D6012D29AA
:100240005508D4005508D90011203629031756083F
:10025000D4005608D9001120362903175208003A55
:0E026000031920295208013A03192629080023
:10026E0083120317CE014108003A031D4A290530B7
:10027E00C6000730C700E030C2000330C300203094
:10028E00C4000030C5004E084A0784000008031958
:10029E0064294E084A0784000008CF004B08D0009E
:1002AE004C08D1004D08D200982083120317460A3D
:0C02BE00F0007008CB07CE0A4A290800A7
:1002CA0083120313061286160317CC014C08073C47
:1002DA00031C80294C08D9008D200317CB014B0839
:1002EA003F3C031C7E294A08D90011200317CB0A78
:1002FA007429CC0A6B2986120616CC014C08073CD5
:10030A00031C98294C08D9008D200317CB014B08F0
:10031A003F3C031C96294A08D90011200317CB0A2F
:08032A008C29CC0A832908008C
:1003320083120317CA0165213430CA001930CB0079
:10034200CC010130CD0037210630FB001330FC0018
:10035200AD30FD00FD0BAB29FC0BAB29FB0BAB2930
:10036200000000006330CA00CB010230CC00013033
:10037200CD003721A030CA00CB010330CC000130C0
:10038200CD0037216B30CA00CB010630CC000130E2
:10039200CD0037210D30FC00FB30FD00FD0BCF29D5
:0A03A200FC0BCF290000000008004A
:1003AC00831203131A08F100981CDE291812181670
:0603BC007108F0000800CA
:0E03C2000030831203138C1A0130F000080083
:1003D000831603139816903083129800831687179C
:1003E000071383128C1EF7291A08F000F129080060
:1003F00083120317C101831603130610861086119A
:1004000006110612861283120610831688018312C3
:10041000861106110612861606143F3088000C203D
:10042000C03088000C20061686123F3088000C2051
:08043000C03088000C20080018
:1004380046208A110A128000840AC80A0319C90AC8
:08044800F003031D1C2A08004B
:100450009026F821831689018312890119308316A9
:1004600099001815E8210D30FC00FB30FD00FD0B54
:10047000372AFC0B372A000000000317CA01652148
:10048000B130CA001430CB000330CC000130CD00B5
:1004900037210D30FC00FB30FD00FD0B4D2AFC0B1D
:1004A0004D2A00000000E12170080319D92BD62144
:1004B00070088316EF000D30FC00FB30FD00FD0BD3
:1004C0005F2AFC0B5F2A000000006F08703A031DD2
:1004D000D92B9921E12170080319D82BD621700856
:1004E0008316EF000D30FC00FB30FD00FD0B762A7B
:1004F000FC0B762A000000006F08613A031D0D2BEB
:1005000083120317CA016521A930CA002830CB0025
:100510000130CC000130CD00372103132D08003A03
:10052000031D9C2A2E300317CA00CB010330CC00D8
:100530000130CD003721A52A03172030CA00CB0196
:100540000330CC000130CD0037212930CA00CB0167
:100550000430CC000130CD0037210D30FC00FB30E1
:10056000FD00FD0BB12AFC0BB12A00000000E121C7
:10057000700803190C2BD62170088316EF000D307C
:10058000FC00FB30FD00FD0BC32AFC0BC32A00005E
:1005900000006F086C3A031DE72A83122D08003A09
:1005A000031DE72A89140130AD004E300317CA003D
:1005B000CB010330CC000130CD0037215A30CA00C6
:1005C000CB010330CC000130CD003721042B831642
:1005D00003136F086C3A031D042B83122D08013A94
:1005E000031D042B8910AD0138300317CA00CB015D
:1005F0000330CC00CD0137214430CA00CB01033099
:10060000CC000130CD003721831603136F086F3AF9
:10061000031D0C2B99210D2BB72A831603136F088A
:10062000623A031DA12B83120317CA016521103002
:10063000CA002830CB000130CC000130CD0037217A
:1006400003136F08003A031D2F2BE0300317CA0075
:10065000CB010330CC000130CD003721382B0317FC
:10066000E830CA00CB010330CC000130CD00372187
:100670002730CA00CB010430CC000130CD00372137
:100680000D30FC00FB30FD00FD0B442BFC0B442B1C
:1006900000000000E121700803199F2BD62170088B
:1006A0008316EF000D30FC00FB30FD00FD0B562BD8
:1006B000FC0B562B000000006F08663A031D7A2BD6
:1006C00083126F08003A031D7A2B09150130EF00E1
:1006D0002B300317CA00CB010330CC000130CD0012
:1006E00037211930CA00CB010330CC000130CD00D6
:1006F0003721972B831603136F08663A031D972B38
:1007000083126F08013A031D972B0911EF01203066
:100710000317CA00CB010330CC00CD013721CF3005
:10072000CA00CB010330CC000130CD003721831645
:1007300003136F086F3A031D9F2B9921A02B4A2B9F
:10074000CE2B831603136F086F3A031DCE2B831233
:100750000317CA016521D730CA002830CB00023008
:10076000CC000130CD0037210630FB001330FC00F7
:10077000AD30FD00FD0BBA2BFC0BBA2BFB0BBA2BDB
:1007800000000000CA016521C030CA001430CB004F
:100790000330CC000130CD003721D92B0D30FC00C7
:1007A000FB30FD00FD0BD22BFC0BD22B0000000018
:0607B0006A2A532ADA2B2D
:100D2000203084004B3083120313F000C0300317CF
:100D3000C8000530C9001C22A03084001130F0002A
:100D400071300317C8000630C9001C226B308400C4
:100D50000430F0008B300317C8000630C9001C2295
:100D6000B13084003E30F0000B300317C80006306D
:100D7000C9001C221030831784000930F000823033
:100D80000317C8000630C9001C2283136F3084008B
:100D90000130F0008F300317C8000630C9001C2254
:100DA0001930831784002830F00049300317C80039
:0A0DB0000630C9001C22831308005E
:1007C00000340034003400340034003400345F342A
:1007D0000034003400340734003407340034143457
:1007E0007F3414347F34143424342A347F342A344C
:1007F00012342334133408346434623436344934C4
:100800005534223450340034053403340034003479
:1008100000341C3422344134003400344134223456
:100820001C34003408342A341C342A340834083484
:1008300008343E3408340834003450343034003442
:1008400000340834083408340834083400343034B0
:10085000303400340034203410340834043402348A
:100860003E345134493445343E34003442347F34CC
:1008700040340034423461345134493446342134F4
:10088000413445344B3431341834143412347F3409
:100890001034273445344534453439343C344A34F3
:1008A0004934493430340134713409340534033463
:1008B00036344934493449343634063449344934B9
:1008C00029341E34003436343634003400340034D5
:1008D00056343634003400340034083414342234AE
:1008E0004134143414341434143414344134223460
:1008F00014340834003402340134513409340634D9
:1009000032344934793441343E347E341134113434
:1009100011347E347F3449344934493436343E34DA
:1009200041344134413422347F344134413422341F
:100930001C347F3449344934493441347F340934D8
:100940000934013401343E344134413451343234B9
:100950007F340834083408347F34003441347F3421
:10096000413400342034403441343F3401347F3446
:1009700008341434223441347F3440344034403419
:1009800040347F340234043402347F347F340434FE
:10099000083410347F343E344134413441343E34E1
:1009A0007F3409340934093406343E344134513437
:1009B00021345E347F3409341934293446344634C2
:1009C0004934493449343134013401347F340134F9
:1009D00001343F344034403440343F341F342034F9
:1009E000403420341F347F342034183420347F3492
:1009F00063341434083414346334033404347834E2
:100A000004340334613451344934453443340034BC
:100A100000347F3441344134023404340834103417
:100A20002034413441347F340034003404340234FF
:100A300001340234043440344034403440344034CF
:100A40000034013402340434003420345434543437
:100A5000543478347F34483444344434383438346B
:100A600044344434443420343834443444344834F2
:100A70007F343834543454345434183408347E3485
:100A800009340134023408341434543454343C34BA
:100A90007F340834043404347834003444347D34EE
:100AA000403400342034403444343D340034003485
:100AB0007F34103428344434003441347F3440349B
:100AC00000347C3404341834043478347C340834EE
:100AD00004340434783438344434443444343834BA
:100AE0007C34143414341434083408341434143476
:100AF00018347C347C3408340434043408344834E6
:100B0000543454345434203404343F344434403462
:100B100020343C344034403420347C341C34203481
:100B2000403420341C343C344034303440343C3481
:100B3000443428341034283444340C345034503481
:100B400050343C344434643454344C3444340034ED
:100B50000834363441340034003400347F340034F7
:100B60000034003441343634083400340834083456
:100B70002A341C34083408341C342A340834083429
:100B80004C34493447344834543420344F344E3490
:020B900000342F
:080B92004F3455345434003493
:020B9A00003425
:100B9C004C34493447344834543420344F3446347C
:040BAC004634003497
:100BB0002034203420342034203420342034203495
:080BC0002034203420340034FD
:100BC8004C34493447344834543420344F34463450
:040BD800463400346B
:100BDC002034203420342034203420342034203469
:080BEC002034203420340034D1
:100BF4004C34493447344834543420344F344E341C
:020C04000034BA
:100C060042344534443452344F344F344D34003436
:100C160045344E34543445345234203450344134FF
:0E0C26005334533457344F3452344434003472
:100C340045344E34543445345234203450344134E1
:0E0C44005334533457344F3452344434003454
:100C5200463441344E3420344F3446344634003422
:100C620047344F344F3444342034423459344534B9
:020C720000344C
:100C7400463441344E3420344F3446344634003400
:0E0C8400463441344E3420344F344E34003464
:0E0C9200463441344E3420344F344E34003456
:0E0CA000463441344E3420344F344E34003448
:080CAE004F3455345434003476
:100CB600203420342034203420342034203420348E
:020CC6000034F8
:100CC800573445344C3443344F344D344534203450
:0A0CD80048344F344D3445340034E5
:100CE200423441345434483452344F344F344D3406
:020CF2000034CC
:100CF40042344534443452344F344F344D34003448
:100D0400423441345434483452344F344F344D34E3
:020D14000034A9
:080D16004F345534543400340D
:020D1E0000349F
:02400E004A2F37
:00000001FF
