:02000000822C50
:0E000600033083120313FD00FD0B07280800D2
:0A0014000320861403208610080064
:04001E0000000800D6
:100022008312031386110611B83003173904031320
:0600320088000A2008000E
:100038007F30831203173905F1007108B900711F69
:0E0048002828861606122A2886120616080098
:1000560083120313F801F9011030FC00710DF80D3D
:10006600F90D7408F8027508031C750FF9020318D8
:1000760043287408F80775080318750FF907031065
:0A008600F00DF10DFC0B312808000D
:1000900083160313141956281F301105F100710837
:1000A000003A031D56280130F0005728F0010800DF
:1000B00083120313FB01FA01F9018030F800F10CFF
:1000C000F00C031C6C287408F90775080318750FE9
:1000D000FA070318FB0A0310F01F74287408FA07C4
:1000E00075080318750FFB07FB0CFA0CF90CF80CDC
:1000F000031C5F287B08F3007A08F2007908F100FE
:060100007808F000080081
:0E0106008312031725088A00240882000800CF
:10011400FF308316031388000F200F2083128615E7
:10012400861006158614032008080317B9008610E4
:1001340006110F200F20831603138801831203175F
:060144003908F00008007C
:10014A007F30831203173905F0007008B900861151
:10015A000611BF30F0057008B90070177008B900B1
:0A016A007008031388000A20080043
:100174008312031386108615061103173908031317
:0601840088000A200800BB
:0E018A00831603139114911CCB28C82808007B
:08019800831603131115080082
:1001A000831203173108073C0318D7287C298316CC
:1001B00003132208831203172F02F0008316031380
:1001C0002308031C013EF101F1023808F400F50197
:1001D000582070080317B7007108B8003008B9003C
:1001E000A52003173108B90011200317B3018316A6
:1001F00003133808831203173302031857293008F2
:100200007F3C031804297C293008B9001C203108E0
:10021000B900112003173008B900A5208A20700802
:10022000B4008A207008B4003008B9001C203108DE
:10023000B900112003173008B900A52003173708AB
:10024000831603133B07F0003C080318013E83129A
:1002500003173807F1007008A4007108A500832077
:100260008A110A12F0007008B500B70A0319B80A1B
:100270007009B60044293608B40050293508B40086
:1002800050293508B40650293208003A03193B2991
:100290003208013A03193E293208023A031941296A
:1002A0003408B900BA200317B00AB30AF728300897
:1002B000B9001C203108B900112003173008B9001B
:1002C000A520FF300317B500B60173293508B40027
:1002D0003508B900BA207C2903173608B40036085F
:1002E000B900BA207C2903173208003A031966299D
:0A02F0003208013A03196C290800D6
:1002FA00831203138C118316911583128C19862984
:10030A0082291308F10003172F08003A031D9129C7
:10031A0083160313911694298316031391128312D9
:10032A008C118316111683128C199C29982971082D
:04033A00F0000800C7
:10033E0083120317B201053032020318AD293208B9
:10034E003107840020308000B20AA229320831071A
:10035E0084008001B20332083107B3000A30F40082
:10036E00F5012F08F0003008F1002B207808F0007E
:10037E007908F1003030F007031733088400700855
:10038E0080000A30F400F5012F08F0003008F1006B
:10039E002B2070080317AF007108B00000307106F3
:1003AE00031DDB2900307006031DDE29E029B20390
:0403BE00B229080058
:1003C20083120317AF01B0013008123C031DEB2961
:1003D2002F088E3C031CF829482070080319F229C3
:1003E200F82983120317AF0A0319B00AE529831209
:1003F200031712303002031D002A8F302F02031C14
:10040200052A7B30F0000C2A831603131114111CE9
:080412000B2A082AF001080082
:10041A00831203138C1103172F08031393008316F7
:10042A00141D182A142A83128C191C2A182A8316B6
:10043A00111B212AF001242A11150230F0000800AC
:10044A00E1213C3083120317AF000D2203308312DF
:10045A000317AF000D22C5203D3083120317AF00EA
:10046A000D22013083120317AF007D217008031794
:10047A00A700A6010130AF007D21700803172607E7
:10048A0083160313A0008312031727080318013EDB
:10049A0083160313A100013083120317AF007D21D5
:1004AA0070080317A700A6010130AF007D2170086C
:1004BA00031726070313EE00031727080318013E44
:1004CA000313EF0001300317AF007D2170080317F3
:1004DA00A700A601AF017D217008031726070313A1
:1004EA00E100031727080318013E0313E200CC209A
:0204FA000800F8
:1004FC00E1213C3083120317AF000D228312031746
:10050C00AF010D22143083120317AF000D22CC2043
:10051C00E1213C3083120317AF000D22023083120D
:10052C000317AF000D2283120317AF010D22CC204D
:10053C00E121323083120317AF000D2220308312D9
:10054C000317AF000D22273083120317AF000D22C3
:10055C00CC20E121323083120317AF000D2223305F
:10056C0083120317AF000D22403083120317AF0024
:06057C000D22CC20080056
:10058200E121323083120317AF000D22293083128A
:100592000317AF000D22C520333083120317AF00BB
:1005A2000D2283120317AF017D217008DF00E001E5
:1005B200CC20E121323083120317AF000D22283004
:1005C20083120317AF000D22C520333083120317A5
:1005D200AF000D2283120317AF017D217008DD00E9
:1005E200DE01CC200D30FC00FB30FD00FD0BF72AB4
:1005F200FC0BF72A00000000E121323083120317BE
:10060200AF000D222B3083120317AF000D22C5203D
:10061200333083120317AF000D2283120317AF0189
:100622007D217008E500E601CC20E1213230831201
:100632000317AF000D222A3083120317AF000D22D9
:10064200C520333083120317AF000D228312031724
:10065200AF017D217008E300E401CC200D30FC00E5
:10066200FB30FD00FD0B332BFC0B332B0000000095
:10067200E121323083120317AF000D222D30831295
:100682000317AF000D22C520333083120317AF00CA
:100692000D2283120317AF017D217008DB00DC01FC
:1006A200CC20E121323083120317AF000D222C300F
:1006B20083120317AF000D22C520333083120317B4
:1006C200AF000D2283120317AF017D217008AE0027
:0606D200AF01CC2008007E
:1006D80083120317AB01AC012608AD002708AE0052
:1006E80080302706F00080307002031D7D2B00301B
:1006F800260203188B2B0130AB000030AC00260813
:10070800003CAD002708031C013EAE01AE022D08D7
:10071800AF002E08B0002808B1009F210630A900BC
:100728000030AA002A08003C031D9C2B2908003C25
:100738000318B72B29082807F20001302902F00016
:100748000030031C013E2A02F100700828078400CB
:100758000008F00072088400700880000130A902C7
:10076800031CAA03962B28088400203080002B083D
:100778002C040319D52BA901AA01290828078400EC
:100788000008203A031DCC2BA90A0319AA0AC12B79
:100798000130A902031CAA032908280784002D3068
:0407A80080000800C5
:1007AC00831603131413941307168715383083120A
:0407BC00940008009D
:1007C00083208A110A128000840AA40A0319A50A48
:0807D000F003031DE02B0800FB
:1007D80083160313EF013A08003A031DFF2B053077
:1007E800B8000730B900E330BB000530BC0020304A
:1007F800A2000030A3006F088312031726078400A5
:1008080000080319232C831603136F088312031798
:10081800260784000008AF002708B0002808B100A8
:100828002908B200D02083160313380AF000700894
:1008380083120317A70783160313EF0AFF2B080079
:1008480083120313861206160317A7012708073C0D
:10085800031C432C2708B90011200317A6012608FA
:100868003F3C031C412C831603136F0883120317A4
:10087800B900BA200317A60A332CA70A2A2C061295
:100888008616A7012708073C031C5F2C2708B90018
:1008980011200317A60126083F3C031C5D2C831674
:1008A80003136F0883120317B900BA200317A60AA7
:0808B8004F2CA70A462C080092
:1008C00083160313BA0106108610861106118612CC
:1008D00006128312061083168801831286110611F0
:1008E0008612061606143F3088000A20C0308800A1
:1008F0000A20861606123F3088000A20C030880081
:040900000A200800C1
:10090400C62760248316EF0124242730A600A701FC
:10091400A8010130A900EC23203083120317A6009C
:10092400A7010130A8000130A900EC233030831264
:100934000317A600A7010230A8000130A900EC2388
:10094400453083120317A600A7010330A800013025
:10095400A900EC233E3083120317A600A70104303C
:10096400A8000130A900EC23373083120317A60036
:10097400A7010530A8000130A900EC2367308312D9
:100984000317A600A7010630A8000130A900EC2334
:100994000A30831603139300D6230630FB0013306A
:1009A400FC00AD30FD00FD0BD52CFC0BD52CFB0B56
:1009B400D52C000000007E2225224130FC00EE30C0
:1009C400FD00FD0BE32CFC0BE32C0000C1224130A5
:1009D400FC00EE30FD00FD0BED2CFC0BED2C0000BB
:1009E40083125D080317A60003135E080317A7000C
:1009F400D130A8006C23031363080317A600031364
:100A040064080317A700C730A8006C2303132E083B
:100A14000317A60003132F080317A700DB30A80051
:100A24006C2303135F080317A6000313600803175E
:100A3400A7001A30A8006C23031365080317A60047
:100A4400031366080317A7001030A8006C230313D0
:100A54005B080317A60003135C080317A700E5301F
:100A6400A8006C230430F0008316031320088312BB
:100A74000317A60083160313210883120317A70084
:100A8400700803194C2DA70CA60CA713271BA71736
:100A9400FF3E432DBD30A8006C230430F000031347
:100AA4006E080317A60003136F080317A700700846
:100AB4000319632DA70CA60CA713271BA717FF3E2A
:100AC4005A2DAE30A8006C230430F00003136108E3
:100AD4000317A600031362080317A700700803197D
:100AE4007A2DA70CA60CA713271BA717FF3E712D61
:100AF400A430A8006C231A30A6001E30A700A80159
:100B04000130A900EC23103083120317A6001E3015
:100B1400A7000130A8000130A900EC23E5308312BE
:100B24000317A6001E30A7000230A8000130A90058
:100B3400EC23D13083120317A6003C30A700A80190
:100B44000130A900EC23C73083120317A6003C3000
:100B5400A7000130A8000130A900EC23DB30831288
:100B64000317A6003C30A7000230A8000130A900FA
:100B7400EC23BD3083120317A6001E30A7000430F7
:100B8400A8000130A900EC23AE3083120317A6009D
:100B94001E30A7000530A8000130A900EC23A430C2
:100BA40083120317A6001E30A7000630A8000130E8
:080BB400A900EC23DE2CDD2D6D
:100F8C0020308400503083120313F000003003171C
:100F9C00A4000830A500E023A03084000230F0004B
:0E0FAC00C3300317A4000730A500E02308009F
:100BC60000340034003400340034003400345F3420
:100BD600003400340034073400340734003414344D
:100BE6007F3414347F34143424342A347F342A3442
:100BF60012342334133408346434623436344934BA
:100C0600553422345034003405340334003400346F
:100C160000341C342234413400340034413422344C
:100C26001C34003408342A341C342A34083408347A
:100C360008343E3408340834003450343034003438
:100C460000340834083408340834083400343034A6
:100C56003034003400342034103408340434023480
:100C66003E345134493445343E34003442347F34C2
:100C760040340034423461345134493446342134EA
:100C8600413445344B3431341834143412347F34FF
:100C96001034273445344534453439343C344A34E9
:100CA6004934493430340134713409340534033459
:100CB60036344934493449343634063449344934AF
:100CC60029341E34003436343634003400340034CB
:100CD60056343634003400340034083414342234A4
:100CE6004134143414341434143414344134223456
:100CF60014340834003402340134513409340634CF
:100D060032344934793441343E347E34113411342A
:100D160011347E347F3449344934493436343E34D0
:100D260041344134413422347F3441344134223415
:100D36001C347F3449344934493441347F340934CE
:100D46000934013401343E344134413451343234AF
:100D56007F340834083408347F34003441347F3417
:100D6600413400342034403441343F3401347F343C
:100D760008341434223441347F344034403440340F
:100D860040347F340234043402347F347F340434F4
:100D9600083410347F343E344134413441343E34D7
:100DA6007F3409340934093406343E34413451342D
:100DB60021345E347F3409341934293446344634B8
:100DC6004934493449343134013401347F340134EF
:100DD60001343F344034403440343F341F342034EF
:100DE600403420341F347F342034183420347F3488
:100DF60063341434083414346334033404347834D8
:100E060004340334613451344934453443340034B2
:100E160000347F344134413402340434083410340D
:100E26002034413441347F340034003404340234F5
:100E360001340234043440344034403440344034C5
:100E4600003401340234043400342034543454342D
:100E5600543478347F344834443444343834383461
:100E660044344434443420343834443444344834E8
:100E76007F343834543454345434183408347E347B
:100E860009340134023408341434543454343C34B0
:100E96007F340834043404347834003444347D34E4
:100EA600403400342034403444343D34003400347B
:100EB6007F34103428344434003441347F34403491
:100EC60000347C3404341834043478347C340834E4
:100ED60004340434783438344434443444343834B0
:100EE6007C3414341434143408340834143414346C
:100EF60018347C347C3408340434043408344834DC
:100F0600543454345434203404343F344434403458
:100F160020343C344034403420347C341C34203477
:100F2600403420341C343C344034303440343C3477
:100F3600443428341034283444340C345034503477
:100F460050343C344434643454344C3444340034E3
:100F56000834363441340034003400347F340034ED
:100F6600003400344134363408340034083408344C
:100F76002A341C34083408341C342A34083408341F
:040F860000340034FF
:0E10000041342E34593420343D342034003431
:0E100E0041342E34583420343D342034003424
:04101C000034003468
:0E10200041342E345A3420343D342034003410
:0E102E004D342E34593420343D3420340034F7
:0E103C004D342E34583420343D3420340034EA
:10104A005F345F345F345F345F345F345F345F34FE
:10105A005F345F345F345F345F345F345F345F34EE
:0C106A005F345F345F345F3420340034A6
:04107600003400340E
:04107A00003400340A
:04107E000034003406
:041082000034003402
:0410860000340034FE
:04108A0000340034FA
:0E108E004D342E345A3420343D342034003496
:04109C0000340034E8
:02400E004A2F37
:00000001FF
