:02000000B02925
:10000600063083120313FD00FD0B072800000800CD
:06001600000000000800DC
:0A001C00032087140320871008005A
:100026007F30831203134405F1007108C400711F69
:0E0036001F28871607122128871207160800B8
:100044008312031387110711B830440488000E206B
:020054000800A2
:100056007F30831203134405F0007008C400871133
:100066000711BF30F0057008C40070177008C4008F
:08007600700888000E2008004C
:10007E0083120313871087150711440888000E207A
:02008E00080068
:0E009000831203132D088A002C08820008003A
:10009E0083120313FB01FA01F9018030F800F10C11
:1000AE00F00C031C63287408F90775080318750F04
:1000BE00FA070318FB0A0310F01F6B287408FA07DF
:1000CE0075080318750FFB07FB0CFA0CF90CF80CEE
:1000DE00031C56287B08F3007A08F2007908F10019
:0600EE007808F000080094
:1000F400FF308316031388000B200B20831287150F
:1001040087100715871403200808C40087100711F7
:100114000B200B208316880183124408F00008008A
:10012400831203133C08073C031899282529300837
:100134003A02F0003108031C013EF101F1022F08DC
:10014400F400F5014F207008C2007108C3003B0899
:10015400C4002B203C08C4002220BE012F083E020C
:10016400031804293B087F3C0318B92825293B08B8
:10017400C40013203C08C40022203B08C4002B20E8
:100184007A207008BF007A207008BF003B08C400C2
:1001940013203C08C40022203B08C4002B20420842
:1001A4003207F00033080318013E4307F1007008DA
:1001B400AC007108AD0048208A110A12F0007008E2
:1001C400C000C20A0319C30A7009C100F228410819
:1001D400BF00FE284008BF00FE284008BF06FE28D6
:1001E4003D08003A0319E9283D08013A0319EC28AF
:1001F4003D08023A0319EF283F08C4003F20BB0A18
:10020400BE0AB0283B08C40013203C08C4002220C6
:100214003B08C4002B20FF30C000C1011D29400849
:10022400BF004008C4003F2025294108BF00410801
:10023400C4003F2025293D08003A031911293D082F
:08024400013A03191729080013
:10024C0083120313B9013408003A031D3929053010
:10025C00AF000730AE000730B2000230B3002030E0
:10026C00B0000030B10039083507840000080319CC
:10027C0051293908350784000008BA003608BB003C
:10028C003708BC003808BD0092202F0AF000700817
:08029C00B607B90A3929080070
:1002A4008312031387120716B7013708073C031C90
:1002B4006A293708C4002220B60136083F3C031CD3
:1002C40068293508C4003F20B60A5F29B70A5729B0
:1002D40007128716B7013708073C031C8029370823
:1002E400C4002220B60136083F3C031C7E29350891
:0E02F400C4003F20B60A7529B70A6D2908001C
:1003020083120313B4018316071087108711071194
:10031200871207128312071083168801831287112E
:1003220007118712071607143F3088000E20C030CD
:1003320088000E20871607123F3088000E20C0303A
:0603420088000E200800F7
:1003480048208A110A128000840AAC0A0319AD0AEF
:08035800F003031DA4290800B5
:10036000483083120313A0006530A1006C30A20056
:100370006C30A3006F30A4002030A5007730A600B9
:100380006F30A7007230A8006C30A9006430AA005A
:10039000AB01831686018312860181211530FB0093
:1003A0004B30FC00BE30FD00FD0BD429FC0BD429E2
:1003B000FB0BD4290000FF30B50052210B30FB00AD
:1003C0002630FC005D30FD00FD0BE429FC0BE42928
:1003D000FB0BE42900000000B50152210B30FB00AB
:1003E0002630FC005D30FD00FD0BF429FC0BF429E8
:1003F000FB0BF429000000002030B5001E30B600D1
:0E0400000330B7000130B8002621052A062A75
:10040E0000340034003400340034003400345F34DF
:10041E00003400340034073400340734003414340C
:10042E007F3414347F34143424342A347F342A3401
:10043E001234233413340834643462343634493479
:10044E00553422345034003405340334003400342F
:10045E0000341C342234413400340034413422340C
:10046E001C34003408342A341C342A34083408343A
:10047E0008343E34083408340034503430340034F8
:10048E000034083408340834083408340034303466
:10049E003034003400342034103408340434023440
:1004AE003E345134493445343E34003442347F3482
:1004BE0040340034423461345134493446342134AA
:1004CE00413445344B3431341834143412347F34BF
:1004DE001034273445344534453439343C344A34A9
:1004EE004934493430340134713409340534033419
:1004FE00363449344934493436340634493449346F
:10050E0029341E340034363436340034003400348A
:10051E005634363400340034003408341434223463
:10052E004134143414341434143414344134223415
:10053E00143408340034023401345134093406348E
:10054E0032344934793441343E347E3411341134EA
:10055E0011347E347F3449344934493436343E3490
:10056E0041344134413422347F34413441342234D5
:10057E001C347F3449344934493441347F3409348E
:10058E000934013401343E3441344134513432346F
:10059E007F340834083408347F34003441347F34D7
:1005AE00413400342034403441343F3401347F34FC
:1005BE0008341434223441347F34403440344034CF
:1005CE0040347F340234043402347F347F340434B4
:1005DE00083410347F343E344134413441343E3497
:1005EE007F3409340934093406343E3441345134ED
:1005FE0021345E347F340934193429344634463478
:10060E004934493449343134013401347F340134AE
:10061E0001343F344034403440343F341F342034AE
:10062E00403420341F347F342034183420347F3447
:10063E006334143408341434633403340434783497
:10064E000434033461345134493445344334003472
:10065E0000347F34413441340234043408341034CD
:10066E002034413441347F340034003404340234B5
:10067E000134023404344034403440344034403485
:10068E0000340134023404340034203454345434ED
:10069E00543478347F344834443444343834383421
:1006AE0044344434443420343834443444344834A8
:1006BE007F343834543454345434183408347E343B
:1006CE0009340134023408341434543454343C3470
:1006DE007F340834043404347834003444347D34A4
:1006EE00403400342034403444343D34003400343B
:1006FE007F34103428344434003441347F34403451
:10070E0000347C3404341834043478347C340834A3
:10071E00043404347834383444344434443438346F
:10072E007C3414341434143408340834143414342B
:10073E0018347C347C34083404340434083448349B
:10074E00543454345434203404343F344434403418
:10075E0020343C344034403420347C341C34203437
:10076E00403420341C343C344034303440343C3437
:10077E00443428341034283444340C345034503437
:10078E0050343C344434643454344C3444340034A3
:10079E000834363441340034003400347F340034AD
:1007AE00003400344134363408340034083408340C
:1007BE002A341C34083408341C342A3408340834DF
:02400E004A2F37
:00000001FF
