:02000000D32CFF
:10000600063083120313FD00FD0B072800000800CD
:0A0016000320871403208710080060
:06002000000000000800D2
:1000260083120313871087150711500888000B20C9
:020036000800C0
:10003800FF308316031388001020102083128715C1
:1000480087100715871403200808D00087100711A8
:10005800102010208316880183125008F000080031
:100068007F30831203135005F1007108D000711F0F
:0E007800402887160712422887120716080034
:100086007F30831203135005F0007008D0008711EB
:100096000711BF30F0057008D00070177008D00047
:0800A600700888000B2008001F
:1000AE008312031387110711B830500488000B20F8
:0200BE00080038
:1000C0000030831203134A02031C73284A087F3C42
:1000D000031C732800304B02031C73284B083F3C61
:1000E000031C73287428C2284A08D00034204B0807
:1000F000D000D00CD013D00CD013D00CD01357207C
:100100004A08D00043201C207008CF001C20700833
:10011000CF004B08D000D00CD013D00CD013D00C93
:10012000D01357204A08D000432007304B05F00079
:100130007008CD007008F1000130F000710803195B
:10014000A528F00D7010FF3E9F287008CD007009A3
:10015000CE00B3284E08CF05BF284D08CF04BF28D6
:100160004D08CF06BF284C08003A0319AA284C08AE
:10017000013A0319AD284C08023A0319B0284F0878
:06018000D000132008006E
:1001860083120313FB01FA01F9018030F800F10C28
:10019600F00C031CD7287408F90775080318750FA7
:1001A600FA070318FB0A0310F01FDF287408FA0782
:1001B60075080318750FFB07FB0CFA0CF90CF80C05
:1001C600031CCA287B08F3007A08F2007908F100BC
:0601D6007808F0000800AB
:0E01DC008312031325088A00240882000800FD
:1001EA000030831203134202031C002942083F3CD9
:1001FA00031C002901292E29003040020318062970
:10020A00C00140087F3C03180C297F30C000003031
:10021A00410203181129C10141087F3C031817291B
:10022A007F30C10040084102031821294008C40058
:10023A004108C0004408C10040084102031C2E299D
:10024A004008CA004208CB004308CC006020C00A1C
:04025A00212908004E
:10025E00831203134208073C03183629C2292708C4
:10026E004002F0002808031C013EF101F1022608AD
:10027E00F400F501C3207008C8007108C9004108D8
:10028E00D00043204208D0005720C4012608440263
:10029E000318A12941087F3C03185629C229410899
:1002AE00D00034204208D00057204108D00043200F
:1002BE001C207008C5001C207008C5004108D00025
:1002CE0034204208D00057204108D000432048086F
:1002DE002A07F0002B080318013E4907F1007008A9
:1002EE00A4007108A500EE208A110A12F000700811
:1002FE00C600C80A0319C90A7009C7008F29470822
:10030E00C5009B294608C5009B294608C5069B29A2
:10031E004308003A031986294308013A031989292B
:10032E004308023A03198C294508D0001320C10A4C
:10033E00C40A4D294108D00034204208D00057206D
:10034E004108D0004320FF30C600C701BA29460835
:10035E00C5004608D0001320C2294708C50047082B
:10036E00D0001320C2294308003A0319AE294308CE
:08037E00013A0319B42908003B
:100386000030831203132F02031CCE292F087F3C53
:10039600031CCE29CF29FC2900302D020318D429AD
:1003A600AD012D083F3C0318DA293F30AD0000307F
:1003B6002E020318DF29AE012E083F3C0318E5295B
:1003C6003F30AE002D082E020318EF292D08B1008C
:1003D6002E08AD003108AE002D082E02031CFC29A4
:1003E6002F08CA002D08CB003008CC006020AD0ACB
:0403F600EF290800E3
:1003FA00831203132E08B20032083002031C102A9B
:10040A002D08C0002F08C1003208C2003108C300FD
:08041A00F520B20A012A0800D6
:100422000030831203133206031D192A00303106ED
:10043200031D232A2D08CA002F08CB003308CC0045
:1004420060200A2BB801B9012D082F02BA002E082C
:10045200031C013E3002BB003108B6003208B7006F
:100462003108F0003208F100F00DF10D7010700843
:10047200B4007108B5007008033CB4007108031C95
:10048200013EB501B5023608013EF1000030031805
:10049200013E3707F20080303906F00080307206E4
:1004A2007002031D562A7108380203180A2B3808F5
:1004B2002D07CA0036082F07CB003308CC00602076
:1004C20038082D07CA0036082F02CB003308CC00AB
:1004D20060208030F000803039067002031D732ADC
:1004E2003808003C0318872A38082D02CA0036084B
:1004F2002F07CB003308CC00602038082D02CA0039
:1005020036082F02CB003308CC00602039083706AA
:10051200031D8D2A360838060319C62A36082F0706
:10052200CA003A08CA0238082F07CB003308CC00A9
:10053200602036082F02CA003A08CA0238082F077C
:10054200CB003308CC0060208030F00080303906C8
:100552007002031DAE2A3808003C0318C62A36086A
:100562002F07CA003A08CA0238082F02CB00330804
:10057200CC00602036082F02CA003A08CA023808A6
:100582002F02CB003308CC00602080303506F0000B
:1005920080307002031DCF2A003034020318E62A8D
:1005A2003808F0003908F100F00DF10D7010F00D6F
:1005B200F10D70100630F0070318F10A7008B40745
:1005C20071080318013EB507062B36083802F300FE
:1005D2003708031C013E3902F4007308F000740866
:1005E200F100F00DF10D7010F00DF10D70100A30E8
:1005F200F0070318F10A7008B40771080318013EE6
:10060200B5070130B602031CB703B80A0319B90AC9
:04061200442A08006E
:100616008030831203132E06F00080307002031D13
:10062600162B00302D0203181A2BAD01AE018030B7
:10063600F00080302E067002031D232B2D087F3C10
:100646000318292B7F30AD000030AE008030320613
:10065600F00080307002031D322B00303102031887
:10066600362BB101B2018030F000803032067002C4
:10067600031D3F2B31087F3C0318452B7F30B1000B
:100686000030B20080303006F00080307002031D6A
:100696004E2B00302F020318522BAF01B0018030D1
:1006A600F000803030067002031D5B2B2F083F3CA4
:1006B6000318612B3F30AF000030B00080303406A5
:1006C600F00080307002031D6A2B003033020318DD
:1006D6006E2BB301B4018030F00080303406700216
:1006E600031D772B33083F3C03187D2B3F30B300A7
:1006F6000030B4002D083102F1002E08031C013E23
:100706003202F2007108B6007208B7002F083302F1
:10071600B8003008031C013E3402B900803072066E
:10072600F00080307002031D9A2B0030710203180E
:10073600A92B3608003CB6003708031C013EB7015A
:10074600B702FF30BA00FF30BB00AD2B0130BA0054
:100756000030BB0080303906F00080307002031D87
:10076600B62B003038020318C52B3808003CB800F9
:100776003908031C013EB901B902FF30BC00FF3045
:10078600BD00C92B0130BC000030BD00B60DB70D51
:100796003610B80DB90D38102D08CA002F08CB0039
:1007A6003508CC00602080303906F00080303706EE
:1007B6007002031DE02B3608380203182D2C36086C
:1007C600F0003708F100F10CF00CF113711BF11772
:1007D60070083802BE007108031C013E3902BF00D2
:1007E6002E083206031DF92B31082D0603192C2C71
:1007F60080303F06F00080307002031D042C00306C
:100806003E02031C122C3C08AF073D080318013EAC
:10081600B0073608BE02031CBF033708BF023A08FA
:100826002D07F0002E080318013E3B07F100700863
:10083600AD007108AE003808BE0739080318013E3E
:10084600BF077008CA002F08CB003508CC0060200F
:10085600F32B772C3808F0003908F100F10CF00C76
:10086600F113711BF11770083602BE007108031CE4
:10087600013E3702BF0030083406031D442C3308FE
:100886002F060319772C80303F06F0008030700267
:10089600031D4F2C00303E02031C5D2C3A08AD07A9
:1008A6003B080318013EAE073808BE02031CBF030F
:1008B6003908BF023C082F07F00030080318013E34
:1008C6003D07F1007008AF007108B0003608BE079A
:1008D60037080318013EBF072D08CA007008CB0071
:0A08E6003508CC0060203E2C08000D
:1008F000EE208A110A128000840AA40A0319A50AAC
:08090000F003031D782C080030
:1009080083120313AC018316071087108711071190
:100918008712071283120710831688018312871122
:1009280007118712071607143F3088000B20C030C4
:1009380088000B20871607123F3088000B20C03034
:0609480088000B200800EE
:10094E0083120313B1012C08003A031DBA2C053093
:10095E00A6000730A900AF30AA000530AB0020304A
:10096E00A7000030A80031082D07840000080319E5
:10097E00D22C31082D0784000008C0002E08C100BB
:10098E002F08C2003008C3002F21260AF00070087D
:08099E00AE07B10ABA2C0800F3
:1009A600523083120313A0004530A1004430A20048
:1009B600A301831686018312860184240230FB007C
:1009C6000430FC00BA30FD00FD0BE72CFC0BE72CD5
:1009D600FB0BE72C00002030AD000530AE000230E6
:1009E600AF000130B000A7240230FB000430FC0049
:1009F600BA30FD00FD0BFD2CFC0BFD2CFB0BFD2C7A
:100A060000004B30AD003230AE007830AF003C30E5
:100A1600B0000230B100FD210230FB000430FC00C2
:100A2600BA30FD00FD0B152DFC0B152DFB0B152DFE
:100A360000004B30AD003230AE007830AF003C30B5
:100A4600B0000130B100FD210230FB000430FC0093
:100A5600BA30FD00FD0B2D2DFC0B2D2DFB0B2D2D86
:100A66000000C0017F30C1002030C2000230C30048
:100A7600F5200230FB000430FC00BA30FD00FD0B0F
:100A8600422DFC0B422DFB0B422D0000AD013F30E9
:100A9600AE004030AF000230B000C3210230FB0090
:100AA6000430FC00BA30FD00FD0B572DFC0B572D12
:100AB600FB0B572D0000AD01AE013F30AF000030FB
:100AC600B0007F30B1000030B200B301B401023093
:100AD600B5000B230230FB000430FC00BA30FD00E9
:100AE600FD0B732DFC0B732DFB0B732D000040309B
:100AF600AD000030AE002030AF000030B0000A304C
:100B0600B1000030B2000230B30011220B30FB00FE
:100B16002630FC005D30FD00FD0B8F2DFC0B8F2D6C
:100B2600FB0B8F2D00000000AD01AE011930AF00A8
:100B36001930B0000230B100FD210230FB00043054
:100B4600FC00BA30FD00FD0BA62DFC0BA62DFB0B01
:080B5600A62D0000AD2DAE2D0F
:100B5E0000340034003400340034003400345F3488
:100B6E0000340034003407340034073400341434B5
:100B7E007F3414347F34143424342A347F342A34AA
:100B8E001234233413340834643462343634493422
:100B9E0055342234503400340534033400340034D8
:100BAE0000341C34223441340034003441342234B5
:100BBE001C34003408342A341C342A3408340834E3
:100BCE0008343E34083408340034503430340034A1
:100BDE00003408340834083408340834003430340F
:100BEE0030340034003420341034083404340234E9
:100BFE003E345134493445343E34003442347F342B
:100C0E004034003442346134513449344634213452
:100C1E00413445344B3431341834143412347F3467
:100C2E001034273445344534453439343C344A3451
:100C3E0049344934303401347134093405340334C1
:100C4E003634493449344934363406344934493417
:100C5E0029341E3400343634363400340034003433
:100C6E00563436340034003400340834143422340C
:100C7E0041341434143414341434143441342234BE
:100C8E001434083400340234013451340934063437
:100C9E0032344934793441343E347E341134113493
:100CAE0011347E347F3449344934493436343E3439
:100CBE0041344134413422347F344134413422347E
:100CCE001C347F3449344934493441347F34093437
:100CDE000934013401343E34413441345134323418
:100CEE007F340834083408347F34003441347F3480
:100CFE00413400342034403441343F3401347F34A5
:100D0E0008341434223441347F3440344034403477
:100D1E0040347F340234043402347F347F3404345C
:100D2E00083410347F343E344134413441343E343F
:100D3E007F3409340934093406343E344134513495
:100D4E0021345E347F340934193429344634463420
:100D5E004934493449343134013401347F34013457
:100D6E0001343F344034403440343F341F34203457
:100D7E00403420341F347F342034183420347F34F0
:100D8E006334143408341434633403340434783440
:100D9E00043403346134513449344534433400341B
:100DAE0000347F3441344134023404340834103476
:100DBE002034413441347F3400340034043402345E
:100DCE00013402340434403440344034403440342E
:100DDE000034013402340434003420345434543496
:100DEE00543478347F3448344434443438343834CA
:100DFE004434443444342034383444344434483451
:100E0E007F343834543454345434183408347E34E3
:100E1E0009340134023408341434543454343C3418
:100E2E007F340834043404347834003444347D344C
:100E3E00403400342034403444343D3400340034E3
:100E4E007F34103428344434003441347F344034F9
:100E5E0000347C3404341834043478347C3408344C
:100E6E000434043478343834443444344434383418
:100E7E007C341434143414340834083414341434D4
:100E8E0018347C347C340834043404340834483444
:100E9E00543454345434203404343F3444344034C1
:100EAE0020343C344034403420347C341C342034E0
:100EBE00403420341C343C344034303440343C34E0
:100ECE00443428341034283444340C3450345034E0
:100EDE0050343C344434643454344C34443400344C
:100EEE000834363441340034003400347F34003456
:100EFE0000340034413436340834003408340834B5
:100F0E002A341C34083408341C342A340834083487
:02400E004A2F37
:00000001FF
