:020000007B2B58
:10000600063083120313FD00FD0B072800000800CD
:06001600000000000800DC
:0A001C00032087140320871008005A
:10002600FF308316031388000B200B2083128715DD
:10003600871007158714032008088316A400831267
:10004600871007110B200B20831688012408F00067
:020056000800A0
:100058008312031387108715071183162408831248
:0600680088000E200800D4
:10006E007F30831603132405F1007108A400711F5D
:10007E004428831287160712472883128712071601
:02008E00080068
:100090007F30831603132405F0007008A400831238
:1000A00087110711BF30F00570088316A400701780
:0E00B0007008A4007008831288000E2008005B
:1000BE008312031387110711B83083162404831299
:0600CE0088000E2008006E
:1000D40083120313FB01FA01F9018030F800F10CDB
:1000E400F00C031C7E287408F90775080318750FB3
:1000F400FA070318FB0A0310F01F86287408FA078E
:1001040075080318750FFB07FB0CFA0CF90CF80CB7
:10011400031C71287B08F3007A08F2007908F100C7
:060124007808F00008005D
:0E012A008312031335088A003408820008008F
:100138000030831603132002031CAF2820087F3CDD
:10014800031CAF2800302102031CAF2821083F3CC4
:10015800031CAF28B0280B292008A40037208316D9
:100168002108A400A40CA413A40CA413A40CA41385
:100178005F2083162008A400482013207008A300DD
:1001880013207008A3002108A400A40CA413A40C35
:10019800A413A40CA4135F2083162008A4004820ED
:1001A800073083162105F00070088312EE007008EE
:1001B800F1000130F00071080319E628F00D701005
:1001C800FF3EE02883127008EE007009EF00FB285C
:1001D80083126F088316A305082983126E088316F5
:1001E800A304082983126E088316A3060829831618
:1001F8002208003A0319EC282208013A0319F128C9
:100208002208023A0319F6282308A4002C20080023
:1002180083120313F801F9011030FC00710DF80D79
:10022800F90D7408F8027508031C750FF902031814
:1002380024297408F80775080318750FF9070310BF
:0A024800F00DF10DFC0B1229080067
:1002520083120313E7010530670203183729670881
:100262006607840020308000E70A2C2967086607A9
:1002720084008001E70367086607E8000A30F4009B
:10028200F5016408F0006508F1000C217808F0001F
:100292007908F1003030F0076808840070088000A7
:1002A2000A30F400F5016408F0006508F1000C2141
:1002B2007008E4007108E50000307106031D63292F
:1002C20000307006031D66296829E7033C290800EF
:1002D2000030831203136602031C742966083F3C34
:1002E200031C74297529A9290030640203187A298C
:1002F200E40164087F3C031880297F30E400003069
:10030200650203188529E50165087F3C03188B29DE
:100312007F30E50064086502031895296408E80047
:100322006508E4006808E50064086502031CA92961
:1003320064088316A000831266088316A100831244
:1003420067088316A2009C2083120313E40A9529EE
:020352000800A1
:10035400831203136608073C0318B1294D2A3D088C
:100364006402F0003E08031C013EF101F10246085C
:10037400F400F5016A207008EC007108ED006508CE
:100384008316A400482066088316A4005F20E801B1
:10039400460868020318272A65087F3C0318D329F6
:1003A4004D2A65088316A400372066088316A40026
:1003B4005F2065088316A400482013207008831268
:1003C400E900132070088312E90065088316A4006D
:1003D400372066088316A4005F2065088316A400EE
:1003E40048206C084407F00045080318013E6D07D7
:1003F400F1007008B4007108B50095208A110A1242
:10040400F0007008EA00EC0A0319ED0A7009EB0029
:10041400142A6B08E900202A6A08E900202A6A08DD
:10042400E906202A6708003A03190B2A6708013AEB
:1004340003190E2A6708023A0319112A6908831658
:10044400A4002C20E50AE80ACA2965088316A4003A
:10045400372066088316A4005F2065088316A4006D
:100464004820FF30EA00EB01452A6A08E9006A08DF
:100474008316A4002C204D2A6B08E9006B08831610
:10048400A4002C204D2A6708003A0319372A67086C
:08049400013A03193E2A080099
:10049C000030831203136602031C592A66087F3C42
:1004AC00031C592A5A2A8E2A0030640203185F2A28
:1004BC00E40164083F3C0318652A3F30E400003037
:1004CC00650203186A2AE50165083F3C0318702A87
:1004DC003F30E5006408650203187A2A6408E800D6
:1004EC006508E4006808E50064086502031C8E2AB0
:1004FC0066088316A000831264088316A100831279
:10050C0067088316A2009C2083120313E40A7A2A3C
:02051C000800D5
:10051E0083120313E001E1015B08E2005C08E300D3
:10052E0080305C06F00080307002031DA02A00307F
:10053E005B020318AE2A0130E0000030E1005B08D8
:10054E00003CE2005C08031C013EE301E30262088A
:10055E00E4006308E5005D08E60029210630DE00B0
:10056E000030DF005F08003C031DBF2A5E08003C20
:10057E000318DA2A5E085D07F20001305E02F00011
:10058E000030031C013E5F02F10070085D0784001D
:10059E000008F00072088400700880000130DE024E
:1005AE00031CDF03B92A5D08840020308000600838
:1005BE0061040319F82ADE01DF015E085D0784007D
:1005CE000008203A031DEF2ADE0A0319DF0AE42A87
:1005DE000130DE02031CDF035E085D0784002D3050
:0405EE008000080081
:1005F200831203135B08E4005D08E5005C08E60073
:100602005F08E70069215B08E4005D08E5005E0819
:10061200E6005F08E70069215C08E4005E08E50087
:100622005B08E6005F08E7004E225C08E4005E0813
:0E063200E5005D08E6005F08E7004E220800C4
:1006400083120313DF013F08003A031D332B0530EB
:10065000C6000730C3006D30C4000430C500203030
:10066000BD000030BE005F085B078400000803196E
:100670004B2B5F085B0784000008E4005C08E50082
:100680005D08E6005E08E700AA21460AF00070084F
:08069000DC07DF0A332B080030
:1006980083120313BF0183160710871087110711F0
:1006A8008712071283120710831688018312871195
:1006B80007118712071607143F3088000E20C03034
:1006C80088000E20871607123F3088000E20C030A1
:0606D80088000E2008005E
:1006DE0095208A110A128000840AB40A0319B50AF9
:0806EE00F003031D6F2B08004F
:1006F6006D3083120313A0006930A1006E30A20092
:10070600A3017330A4006530A5006330A600A701DD
:10071600A801A901AA01AB016830AC007230AD0096
:100726007330AE00AF01B001B101B201B30183165F
:100736008601831286014C230B30FB002630FC0019
:100746005D30FD00FD0BA52BFC0BA52BFB0BA52B94
:10075600000000002430DB000D30DC000130DD003D
:100766000130DE0020232030DB003530DC00013094
:10077600DD000130DE0020232C30DB005D30DC00A4
:100786000130DD000130DE0020230730DB001430AD
:10079600DC002830DD003530DE000130DF00F922D4
:1007A6002F30DB001430DC005030DD003530DE0049
:1007B6000130DF00F9225730DB001430DC007830DE
:1007C600DD003530DE000130DF00F922AA01AB0181
:1007D6008030F00080302B067002031DF42B2A08AF
:1007E600B43C031C6B2C2808DB002908DC003630DF
:1007F600DD008F223208DB003308DC004730DD00E5
:100806008F223008DB003108DC005430DD008F22F7
:100816003A08D1003B08D2004B08CE004C08CF0066
:100826005808C0005908C1005130DB001130DC0007
:100836000430DD000230DE0020234E30DB0039308C
:10084600DC000430DD000230DE0020234030DB0017
:100856006130DC000430DD000230DE002023A80A0F
:100866000319A90A0B30FB002630FC005D30FD00A1
:10087600FD0B3B2CFC0B3B2CFB0B3B2C0000000028
:1008860080302906F00080307002031D4C2C3C306D
:100896002802031C552CB20A0319B30AA801A901A0
:1008A600AA01AB0180303306F00080307002031DD0
:1008B6005E2C3C303202031C672CB00A0319B10AC5
:1008C600B201B301AA01AB01AA0A0319AB0AEB2BC9
:0408D6006B2C6C2CEF
:1008DA0000340034003400340034003400345F340F
:1008EA00003400340034073400340734003414343C
:1008FA007F3414347F34143424342A347F342A3431
:10090A0012342334133408346434623436344934A8
:10091A00553422345034003405340334003400345E
:10092A0000341C342234413400340034413422343B
:10093A001C34003408342A341C342A340834083469
:10094A0008343E3408340834003450343034003427
:10095A000034083408340834083408340034303495
:10096A00303400340034203410340834043402346F
:10097A003E345134493445343E34003442347F34B1
:10098A0040340034423461345134493446342134D9
:10099A00413445344B3431341834143412347F34EE
:1009AA001034273445344534453439343C344A34D8
:1009BA004934493430340134713409340534033448
:1009CA00363449344934493436340634493449349E
:1009DA0029341E34003436343634003400340034BA
:1009EA005634363400340034003408341434223493
:1009FA004134143414341434143414344134223445
:100A0A0014340834003402340134513409340634BD
:100A1A0032344934793441343E347E341134113419
:100A2A0011347E347F3449344934493436343E34BF
:100A3A0041344134413422347F3441344134223404
:100A4A001C347F3449344934493441347F340934BD
:100A5A000934013401343E3441344134513432349E
:100A6A007F340834083408347F34003441347F3406
:100A7A00413400342034403441343F3401347F342B
:100A8A0008341434223441347F34403440344034FE
:100A9A0040347F340234043402347F347F340434E3
:100AAA00083410347F343E344134413441343E34C6
:100ABA007F3409340934093406343E34413451341C
:100ACA0021345E347F3409341934293446344634A7
:100ADA004934493449343134013401347F340134DE
:100AEA0001343F344034403440343F341F342034DE
:100AFA00403420341F347F342034183420347F3477
:100B0A0063341434083414346334033404347834C6
:100B1A0004340334613451344934453443340034A1
:100B2A0000347F34413441340234043408341034FC
:100B3A002034413441347F340034003404340234E4
:100B4A0001340234043440344034403440344034B4
:100B5A00003401340234043400342034543454341C
:100B6A00543478347F344834443444343834383450
:100B7A0044344434443420343834443444344834D7
:100B8A007F343834543454345434183408347E346A
:100B9A0009340134023408341434543454343C349F
:100BAA007F340834043404347834003444347D34D3
:100BBA00403400342034403444343D34003400346A
:100BCA007F34103428344434003441347F34403480
:100BDA0000347C3404341834043478347C340834D3
:100BEA00043404347834383444344434443438349F
:100BFA007C3414341434143408340834143414345B
:100C0A0018347C347C3408340434043408344834CA
:100C1A00543454345434203404343F344434403447
:100C2A0020343C344034403420347C341C34203466
:100C3A00403420341C343C344034303440343C3466
:100C4A00443428341034283444340C345034503466
:100C5A0050343C344434643454344C3444340034D2
:100C6A000834363441340034003400347F340034DC
:100C7A00003400344134363408340034083408343B
:100C8A002A341C34083408341C342A34083408340E
:02400E004A2F37
:00000001FF
