:02000000242CAE
:10000600063083120313FD00FD0B072800000800CD
:06001600000000000800DC
:0A001C00032087140320871008005A
:100026007F30831203136A05F1007108EA00711F1D
:0E0036001F28871607122128871207160800B8
:10004400FF308316031388000B200B2083128715BF
:1000540087100715871403200808EA008710071182
:100064000B200B208316880183126A08F000080015
:1000740083120313FB01FA01F901F801A001730DC6
:10008400F80D7408F8027508031C750FF902760858
:10009400031C760FFA027708031C770FFB0200019A
:1000A400031C0130A002F30D0730FC00730DF80DA2
:1000B400F90DFA0DFB0DA00D7408731C7328F802DA
:1000C4007508031C750FF9027608031C760FFA02F3
:1000D4007708031C770FFB020001031C0130A00208
:1000E4008428F80775080318750FF90776080318AC
:1000F400760FFA0777080318770FFB070001031838
:100104000130A007F30DFC0B5828720DF80DF90D02
:10011400FA0DFB0DA00D7408731CA228F8027508D3
:10012400031C750FF9027608031C760FFA02770890
:10013400031C770FFB020001031C0130A002B3284B
:10014400F80775080318750FF90776080318760F72
:10015400FA0777080318770FFB070001031801302B
:10016400A007F20D0730FC00720DF80DF90DFA0D21
:10017400FB0DA00D7408721CD128F8027508031C2D
:10018400750FF9027608031C760FFA027708031C30
:10019400770FFB020001031C0130A002E228F807DC
:1001A40075080318750FF90776080318760FFA0710
:1001B40077080318770FFB07000103180130A00725
:1001C400F20DFC0BB628710DF80DF90DFA0DFB0DAF
:1001D400A00D7408721C0029F8027508031C750F21
:1001E400F9027608031C760FFA027708031C770FCE
:1001F400FB020001031C0130A0021129F807750855
:100204000318750FF90776080318760FFA077708AD
:100214000318770FFB07000103180130A007F10D45
:100224000730FC00710DF80DF90DFA0DFB0DA00D52
:100234007408711C2F29F8027508031C750FF90244
:100244007608031C760FFA027708031C770FFB026B
:100254000001031C0130A0024029F80775080318A7
:10026400750FF90776080318760FFA07770803184D
:10027400770FFB07000103180130A007F10DFC0BF9
:100284001429700DF80DF90DFA0DFB0DA00D74086D
:10029400711C5E29F8027508031C750FF9027608B3
:1002A400031C760FFA027708031C770FFB02000188
:1002B400031C0130A0026F29F80775080318750F95
:1002C400F90776080318760FFA0777080318770FEB
:1002D400FB07000103180130A007F00D0730FC00F4
:1002E400700DF80DF90DFA0DFB0DA00D7408701CBE
:1002F4008D29F8027508031C750FF9027608031C92
:10030400760FFA027708031C770FFB020001031C27
:100314000130A0029E29F80775080318750FF90724
:1003240076080318760FFA0777080318770FFB0788
:10033400000103180130A007F00DFC0B722970189E
:10034400B1297408F80775080318750FF9077608BA
:100354000318760FFA0777080318770FFB070800CE
:100364008312031387110711B8306A0488000E2022
:0203740008007F
:100376007F30831203136A05F0007008EA008711C4
:100386000711BF30F0057008EA0070177008EA0020
:08039600700888000E20080029
:0E039E00831203133D088A003C088200080009
:1003AC00831203138710871507116A0888000E2023
:0203BC00080037
:1003BE0083120313FB01FA01F9018030F800F10CEE
:1003CE00F00C031CF3297408F90775080318750F50
:1003DE00FA070318FB0A0310F01FFB297408FA072B
:1003EE0075080318750FFB07FB0CFA0CF90CF80CCB
:1003FE00031CE6297B08F3007A08F2007908F10065
:06040E007808F000080070
:10041400831203136208073C0318112A9D2A41081A
:100424006002F0004208031C013EF101F1023E08A3
:10043400F400F501DF217008E8007108E9006108A3
:10044400EA00BB216208EA00B221E4013E0864022A
:1004540003187C2A61087F3C0318312A9D2A61080D
:10046400EA0013206208EA00B2216108EA00BB2115
:1004740022207008E50022207008E5006108EA00E7
:1004840013206208EA00B2216108EA00BB2168086F
:100494004307F00044080318013E6907F10070089F
:1004A400BC007108BD00CF218A110A12F000700847
:1004B400E600E80A0319E90A7009E7006A2A6708EE
:1004C400E500762A6608E500762A6608E506762AB7
:1004D4006308003A0319612A6308013A0319642A7C
:1004E4006308023A0319672A6508EA00D621E10A7B
:1004F400E40A282A6108EA0013206208EA00B2210B
:100504006108EA00BB21FF30E600E701952A66088E
:10051400E5006608EA00D6219D2A6708E500670819
:10052400EA00D6219D2A6308003A0319892A630840
:08053400013A03198F2A0800A7
:10053C000E3083120313FD00FD0BA22A00000800ED
:10054C0083120313E501E60100306602031DB02A95
:10055C000A3065020318BB2A650864078400203042
:10056C008000E50A0319E60AAA2A650864078400D4
:10057C0080010130E502031CE60365086407E7000F
:10058C000A30F400F501F601F7016008F00061088B
:10059C00F1006208F2006308F3003A207808F000DA
:1005AC007908F1007A08F2007B08F300303070070C
:1005BC00F40067088400740880000A30F400F50128
:1005CC00F601F7016008F0006108F1006208F20022
:1005DC006308F3003A207008E0007108E10072082B
:1005EC00E2007308E3000030F4007306031D082BCF
:1005FC0074087206031D082B74087106031D082B62
:10060C007008003A031D0B2B102B0130E502031C64
:06061C00E603C32A0800FA
:1006220083120313D7013F08003A031D242B053020
:10063200BE000730C000BA30C3000430C40020300E
:10064200C1000030C2005708530784000008031994
:100652003C2B5708530784000008E0005408E100CF
:100662005508E2005608E3000A223E0AF00070082C
:08067200D407D70A242B08006D
:10067A0083120313DA01DB015308DC005408DD009E
:10068A005508DE005608DF0080305606F00080303C
:10069A007002031D5A2B00305502031D5A2B0030DD
:1006AA005402031D5A2B003053020318822B0130C7
:1006BA00DA000030DB00F401F501F601F701530816
:1006CA00F0005408F1005508F2005608F3007408C7
:1006DA00DC007508DD007608DE007708DF007008A8
:1006EA00DC027108031C710FDD027208031C720F11
:1006FA00DE027308031C730FDF025C08E0005D086A
:10070A00E1005E08E2005F08E3005708E400A62261
:10071A000B30D8000030D9005908003C031D972B34
:10072A005808003C0318B22B58085707F20001304A
:10073A005802F0000030031C013E5902F100700813
:10074A00570784000008F0007208840070088000CF
:10075A000130D802031CD903912B5708840020309A
:10076A0080005A085B040319D02BD801D901580814
:10077A00570784000008203A031DC72BD80A03191B
:10078A00D90ABC2B0130D802031CD90358085707D1
:08079A0084002D3080000800EE
:1007A200831203139F01C0309F0483161F179F17E4
:1007B20083125308F000F00D7010F00D7010F00D60
:1007C200701070089F041F149E221F151F1DEB2B13
:1007D2000000E72B1F101E08F100F00183161E080F
:0807E200F0040030F1040800EE
:1007EA0083120313BF01831607108710871107119D
:1007FA008712071283120710831688018312871142
:10080A0007118712071607143F3088000E20C030E0
:10081A0088000E20871607123F3088000E20C0304D
:06082A0088000E2008000A
:10083000CF218A110A128000840ABC0A0319BD0A5A
:08084000F003031D182C080051
:1008480083120313A101A201A301A4015430A5003E
:100858006830A6006530A7002030A8005630A900EF
:100868006F30AA006C30AB007430AC006130AD0062
:100878006730AE006530AF002030B0006930B1009D
:100888007330B2003A30B3002030B400B5013030D4
:10089800B6002E30B7003030B8003030B9003030F4
:1008A800BA00BB01FF3083168500F5230230FB0038
:1008B8000430FC00BA30FD00FD0B602CFC0B602CF2
:1008C800FB0B602C0000803083169F0001308312E0
:1008D800D300D12370088312C5007108C600E83020
:1008E800F4000130F500DF217008A1007108A200B2
:1008F800A301A4012108D3002208D4002308D500AD
:100908002408D6004730D7003D234D08B6004E08CE
:10091800B8004F08B9005008BA002530D300D401F8
:100928000230D5000130D60011231A30FC00F8300F
:10093800FD00FD0B9D2CFC0B9D2C00003630D300D8
:100948003C30D4000330D5000130D60011230B30E1
:10095800FB002630FC005D30FD00FD0BB12CFC0BCC
:0C096800B12CFB0BB12C00000000B92CDE
:1009740000340034003400340034003400345F3474
:1009840000340034003407340034073400341434A1
:100994007F3414347F34143424342A347F342A3496
:1009A400123423341334083464346234363449340E
:1009B40055342234503400340534033400340034C4
:1009C40000341C34223441340034003441342234A1
:1009D4001C34003408342A341C342A3408340834CF
:1009E40008343E340834083400345034303400348D
:1009F40000340834083408340834083400343034FB
:100A040030340034003420341034083404340234D4
:100A14003E345134493445343E34003442347F3416
:100A2400403400344234613451344934463421343E
:100A3400413445344B3431341834143412347F3453
:100A44001034273445344534453439343C344A343D
:100A540049344934303401347134093405340334AD
:100A64003634493449344934363406344934493403
:100A740029341E340034363436340034003400341F
:100A840056343634003400340034083414342234F8
:100A940041341434143414341434143441342234AA
:100AA4001434083400340234013451340934063423
:100AB40032344934793441343E347E34113411347F
:100AC40011347E347F3449344934493436343E3425
:100AD40041344134413422347F344134413422346A
:100AE4001C347F3449344934493441347F34093423
:100AF4000934013401343E34413441345134323404
:100B04007F340834083408347F34003441347F346B
:100B1400413400342034403441343F3401347F3490
:100B240008341434223441347F3440344034403463
:100B340040347F340234043402347F347F34043448
:100B4400083410347F343E344134413441343E342B
:100B54007F3409340934093406343E344134513481
:100B640021345E347F34093419342934463446340C
:100B74004934493449343134013401347F34013443
:100B840001343F344034403440343F341F34203443
:100B9400403420341F347F342034183420347F34DC
:100BA400633414340834143463340334043478342C
:100BB4000434033461345134493445344334003407
:100BC40000347F3441344134023404340834103462
:100BD4002034413441347F3400340034043402344A
:100BE400013402340434403440344034403440341A
:100BF4000034013402340434003420345434543482
:100C0400543478347F3448344434443438343834B5
:100C1400443444344434203438344434443448343C
:100C24007F343834543454345434183408347E34CF
:100C340009340134023408341434543454343C3404
:100C44007F340834043404347834003444347D3438
:100C5400403400342034403444343D3400340034CF
:100C64007F34103428344434003441347F344034E5
:100C740000347C3404341834043478347C34083438
:100C84000434043478343834443444344434383404
:100C94007C341434143414340834083414341434C0
:100CA40018347C347C340834043404340834483430
:100CB400543454345434203404343F3444344034AD
:100CC40020343C344034403420347C341C342034CC
:100CD400403420341C343C344034303440343C34CC
:100CE400443428341034283444340C3450345034CC
:100CF40050343C344434643454344C344434003438
:100D04000834363441340034003400347F34003441
:100D140000340034413436340834003408340834A0
:100D24002A341C34083408341C342A340834083473
:02400E004A2F37
:00000001FF
