:02000000132BC0
:0E000600F201F101F001F801F30100300800F1
:100014007B15FB1F14280130F300F201F101F001FC
:08002400FA0DF20CFF30080098
:10002C00103083120313FD00FD0B1A28000008008A
:10003C00083083120313FC002330FD00FD0B242831
:06004C00FC0B2428080053
:0400520000000800A2
:08005600FA1FF213003008004C
:10005E0083120313F801F9011030FC00710DF80D35
:10006E00F90D7408F8027508031C750FF9020318D0
:10007E0047287408F80775080318750FF907031059
:0A008E00F00DF10DFC0B3528080001
:100098007B14FB1F5728F201FA1FFF30F200F10012
:0A00A800F000FA0DF20CFF30080022
:1000B200A0017208031D6E287108F2007008F10099
:1000C200F001A0157208031D6E287108F200F101FB
:1000D200A0112016720803197C282008F302031DC0
:1000E200031C80280310F21B8428F00DF10DF20D81
:1000F200F30B742880280130FC000320872802308B
:0E010200FC000A2087280430FC002B20080097
:10011000FB14FB1F9228FF30F300F200F100F00007
:08012000FA0DF20CFF3008009B
:0E012800073083120313FD00FD0B982808001A
:0E013600831203132B088A002A088200080097
:1001440083120313B901053039020318B0283908A2
:100154003807840020308000B90AA52839083807F8
:1001640084008001B90339083807BA000A30F40062
:10017400F5013608F0003708F1002F207808F00068
:100184007908F1003030F0073A08840070088000E4
:100194000A30F400F5013608F0003708F1002F208A
:1001A4007008B6007108B70000307106031DDC2822
:1001B40000307006031DDF28E128B903B5280800C4
:1001C40083120313B61BE8288611E9288615361B0B
:1001D400ED280611EE280615B61AF2288610F32823
:1001E4008614361AF7280610F82806142C18FC284A
:1001F4000616FD280612861629208612B619042929
:100204008611052986153619092906110A290615A4
:10021400B6180E2986100F298614361813290610CD
:10022400142906142C1818290616192906128616DC
:10023400292086122C1C20291E2021291620080082
:1002440083120313B201B3012D08B4002E08B500C4
:1002540080302E06F00080307002031D33290030F8
:100264002D02031841290130B2000030B3002D08DB
:10027400003CB4002E08031C013EB501B50234084D
:10028400B6003508B7002F08B800A2200630B00029
:100294000030B1003108003C031D52293008003CF5
:1002A40003186D2930082F07F20001303002F000E6
:1002B4000030031C013E3102F10070082F07840056
:1002C4000008F00072088400700880000130B00259
:1002D400031CB1034C292F0884002030800032080D
:1002E400330403198B29B001B10130082F078400AE
:1002F4000008203A031D8229B00A0319B10A77299C
:100304000130B002031CB10330082F0784002D30E4
:04031400800008005D
:100318009B208A110A128000840AAA0A0319AB0AD0
:08032800F003031D8C290800FD
:1003300083120313FB0173080319D5297208FA000D
:10034000F2178E30F302F31FD829F309F30A0830AD
:100350007302031CBB29F300F10D7208F100F201D6
:1003600008307302031CBB29F300F10DF10173087F
:10037000031D0310C32973080319C3290310F20CCA
:10038000F10CF30BBE297B1B711CCD29031CCD295D
:10039000F10A0319F20AF21BE429FA1FE729F2090C
:1003A000F109F10A0319F20AE729F201F101E7293B
:1003B0007B14FB1FEA29F201FA1FEA29FF30F20041
:1003C000F100FA0DF20CEA290130FC00EC290030B2
:1003D000FC00EC29FF30FC00FC080319F0294C203C
:0A03E0007108F0007208F100080037
:1003EA0083120313FB017308031D770803194C2AB0
:1003FA0072087606FA007708F3077E30031C092A8A
:10040A00F30203184F2A0C2AF302031C522A720819
:10041A00F8007108FC007008FD00F817F6170310C1
:10042A00F201F101F0011830A0007D1C262A74089F
:10043A00F00775080318750FF10776080318760F89
:10044A00F207F20CF10CF00CF80CFC0CFD0C03108A
:10045A00A00B1A2AF21B362AF80DF00DF10DF20D37
:10046A00F3037B1B701C482AF81F482AF00A031959
:10047A00F10A0319F20A031D482AF20CF10CF00CD6
:10048A00F30A03194F2AFA1FF2130030542A0130D3
:10049A000320542A02308820542A04300A200000FB
:0204AA00080048
:1004AC00831203137008F8007108F000F101F201D7
:1004BC00F301FB01FC019630F300FA017008F10026
:0C04CC007808F000F801F2015920080047
:1004D800831603138612061206108610061186115B
:1004E80083128612061286110611861006101E2027
:1004F8001E201E20861406148616292086121E2009
:100508008616292086121E208616292086121E206D
:1005180006108616292086121E2086162920861285
:10052800861086158616292086121E208611061426
:1005380086162920861206108616292086121E2065
:1005480086162920861206148616292086121E2051
:100558000610861629208612861506158614061496
:0C0568008616292086121E202C14080084
:10057400CC2A803083120313AD00DF2AC030AD00D3
:10058400DF2A9430AD00DF2AD430AD00DF2A80307A
:10059400AD00DF2A831203132D08013A0319BB2A85
:1005A4002D08023A0319C02A2D08033A0319C32A55
:1005B4002D08043A0319C62AC92A2E03F0002D086F
:1005C400F0077008AD002C147008B600E2202C105F
:0A05D4002F08B600E2202C140800E6
:1005DE00831203139F01C0309F0483161F179F17AA
:1005EE0083122D08F000F00D7010F00D7010F00D4C
:1005FE00701070089F041F1494201F151F1D092BC7
:10060E000000052B1F101E08F100F00183161E08B6
:08061E00F0040030F1040800B3
:100626008316031387136C220C30B600E2200330C6
:10063600AD00EF225622E330F4003630F5007A3072
:10064600F6007D30F700F52198217008A8007108A2
:10065600A9007008AD007108AE002130AF0022215C
:100666000130AD000130AE002408AF00BA220130DF
:10067600AD000230AE002508AF00BA220130AD0051
:100686000330AE002608AF00BA220230FB00043069
:10069600FC00BA30FD00FD0B4E2BFC0B4E2BFB0B6A
:1006A6004E2B00008030F000803029067002031DBA
:1006B6005E2B28081E3C0318622B8717632B8713B3
:0406C6001A2B642B5C
:02400E004A2F37
:00000001FF
