:020000000329D2
:10000600103083120313FD00FD0B072800000800C3
:10001600083083120313FC002330FD00FD0B11286A
:06002600FC0B112808008C
:04002C0000000800C8
:1000300083120313AE1B1E2886111F2886152E1B44
:100040002328061124280615AE1A282886102928E8
:1000500086142E1A2D2806102E2806142918322848
:10006000061633280612861616208612AE193A286E
:1000700086113B2886152E193F28061140280615A3
:10008000AE1844288610452886142E1849280610D4
:100090004A28061429184E2806164F2806128616D6
:1000A00016208612291C56280B20572803200800EA
:0E00B0008312031328088A0027088200080024
:1000BE00831603139818652800005F2883122E08F4
:0400CE00990008008D
:1000D20083120313AD012B0884000008AC002C0826
:1000E200003A03197E282C08AE005F20AD0A2D08C5
:0C00F2002B0784000008AC0070280800F8
:1000FE008312031329102B08AE00182029140800B0
:0E010E000030831203138C1A0130F000080039
:10011C0058208A110A128000840AA70A0319A80A17
:08012C00F003031D8E280800FA
:10013400831203131A08F100981CA2281812181627
:060144007108F000080044
:10014A008316031398169030831298008316871724
:10015A00071383128C1EB4281A08F000AE28080070
:10016A0083160313861206120610861006118611CC
:10017A0083128612061286110611861006100B20AB
:10018A000B200B20861406148616162086120B20C6
:10019A008616162086120B208616162086120B202B
:1001AA0006108616162086120B2086161620861230
:1001BA00861086158616162086120B2086110614BE
:1001CA0086161620861206108616162086120B2010
:1001DA0086161620861206148616162086120B20FC
:1001EA00061086161620861286150615861406141B
:0C01FA008616162086120B20291408001F
:10020600793083120313A0006F30A1007330A2006F
:100216007330A3006F30A4006630A500A6018316D4
:100226000710B5201930831699001815A52020301F
:10023600AB00692087207008031931299A207008BD
:10024600AA007008793A031D292907142A086E3A6C
:10025600031D2E2907102A08AB007F201D293229ED
:02400E004A2F37
:00000001FF
