:04000000E0EF0CF031
:1000080000C01EF001C01DF002C01CF003C01BF0B0
:1000180004C01AF005C019F006C018F008C017F09F
:1000280009C016F00AC015F0E1CF25F0E2CF26F09E
:10003800E9CF23F0EACF24F0F5CF22F0F8CF1FF074
:10004800F7CF20F0F6CF21F03FEC0CF022C0F5FFFF
:100058001FC0F8FF20C0F7FF21C0F6FF1EC000F048
:100068001DC001F01CC002F01BC003F01AC004F050
:1000780019C005F018C006F017C008F016C009F03E
:1000880015C00AF023C0E9FF24C0EAFF25C0E1FF3C
:0600980026C0E2FF11008A
:10009E0083C04EF084C04FF085C052F086C053F03E
:1000AE00800E00018711006E008000C051F012001A
:1000BE00000E056E040E066E83C003F0000E046E75
:1000CE0003360436039003360436039084C000F0E2
:1000DE00000E016E003601360090005003260150CE
:1000EE00042203C001F004C002F001360190023672
:1000FE0001360190023601C003F002C004F0043252
:10010E000332049E04BC048E04320332049E04BCEB
:10011E00048E03C000F004C001F0003600900136DA
:10012E00003600900136055000260650012200C010
:10013E0005F001C006F000C0E1FF01C0E2FFE69E3F
:10014E0000018451000A12E183C000F0000E016E1E
:10015E000036009001363F0E0024E16E000E0120A5
:10016E00E26E05C0E6FF06C0E6FF11D083C000F0C8
:10017E00000E016E003600900136440E0024E16E32
:10018E00000E0120E26E05C0E6FF06C0E6FF05C0C8
:10019E00E1FF06C0E2FFE69C040E0524E16E000EB0
:0801AE000620E26EE68C12004F
:0E01B600800E00018311006E00C051F0120097
:1001C40083C04EF084C04FF085C050F086C052F01A
:1001D40087C053F0800E00018811006E00C051F0FA
:0201E400120007
:1001E60020C401F01F0E01160150010A01E08BD058
:1001F60004012451000A01E086D02151060A38E1A3
:100206002DD04C50010A13E1FE0E0001836F190E2A
:10021600846F000E856F120E8327000E84238523BC
:10022600090E866F000E876F400E886FC8DF20D0DC
:100236004C50010A0EE10001270E836F1A0E846FDF
:10024600000E856F210E866F000E876F400E886F39
:10025600B6DF0ED00001836BABDF0AD00401235159
:10026600210ACFE02351220AE3E02351230AF2E0D8
:1002760020C401F0600E0116050E006E005004E069
:100286000132019EFF0FFBD70150010A01E03BD06E
:1002960027D039D038D03C0E0001836F000E846F12
:1002A600010E856F000E866F400E876FF5DE2BD030
:1002B6000001836B7DDF23C43CF025D000013D0E99
:1002C600836F000E846F010E856F000E866F876B3D
:1002D600E3DE19D00001836B6BDF22C43DF013D03F
:1002E60004012151010AD5E02151090AD3E0215127
:1002F600020AD1E021510A0ADBE02151030ADEE0BD
:0803060021510B0AE7E012008F
:10030E0000017F51000A12E07EC000F0000E016E67
:10031E00003600900136440E0024E96E000E0120D6
:10032E00EA6EEECF04F0EECF05F011D07EC000F0F5
:10033E00000E016E0036009001363F0E0024E96E6D
:10034E00000E0120EA6EEECF04F0EECF05F0020EA5
:10035E000424E16E000E0520E26E80C0E6FF81C02F
:10036E00E6FF010E0424E16E000E0520E26E82C04F
:10037E00E6FF04C0E9FF05C0EAFFEECF00F004C0BF
:10038E00E1FF05C0E2FF400E0014E66E04C0E9FF77
:10039E0005C0EAFFEECF00F004C0E1FF05C0E2FFAA
:1003AE00880E0010E66E7F51000A1BE07EC000F042
:1003BE00000E016E003600900136440E0024026ECF
:1003CE00000E0120036E02C0E9FF03C0EAFF040E17
:1003DE00EE18006E02C0E1FF03C0E2FF00C0E6FFB0
:1003EE001AD07EC000F0000E016E0036009001366D
:1003FE003F0E0024026E000E0120036E02C0E9FFC4
:10040E0003C0EAFF040EEE18006E02C0E1FF03C047
:10041E00E2FF00C0E6FF04C000F005C001F01200CC
:10042E00700EE16E0F0EE26E00017E51E126D8B025
:10043E00E22A7FC0E6FF7FA504D07EC083F0846BE6
:10044E0037DE7FA305D07EC083F0010E846F30DED1
:02045E0012008A
:100460003E5215E0010E00017E6F1E0E7F6FDFDF32
:10047000010E7E6F7F6B31C080F032C081F0400E84
:10048000826F45DF00C048F001C049F014D0000180
:10049000010E7E6F1E0E7F6FCADF010E7E6F7F6BB7
:1004A00031C080F032C081F0400E826F30DF00C07A
:0804B00048F001C049F0120000
:0804B8003E5201E094DE120047
:1004C0000B6A0A6A096A00500402F4CF09F0F3CFFC
:1004D00008F001500502F4CF0BF0F3CF0AF0005002
:1004E0000502F3500926F4500A22E86A0B22015053
:1004F0000402F3500926F4500A22E86A0B2208C0CD
:1005000000F009C001F00AC002F00BC003F01200B5
:1005100078C002F079C003F07BC000F07CC001F02D
:10052000010E00017B5F000E7C5B0050011009E0B2
:1005300002C0E1FF03C0E2FF7AC0E6FF024A032ADD
:04054000EBD71200E3
:100544000CD08CDF3CD03BD0B5DF39D038D037D09D
:1005540036D035D0000033D032D0000E00017919E6
:1005640002E1010E7819EDE0000E791902E1020EA4
:100574007819E9E0000E791902E1030E7819E4E034
:100584007951000A02E1730E7819E0E07951000A0A
:1005940002E1750E7819DBE07951000A02E1740E6C
:1005A4007819D6E079513F0A02E1FF0E7819D1E0BB
:1005B4007951000A02E1720E7819CCE0CDD7010E10
:0405C400006E1200B3
:1005C800000E535C02E1080E525C11E252C003F0C7
:1005D80053C004F000016451000A03E1010E646F86
:1005E80005D06451010A02E1020E646F04D0080EBE
:1005F800036E000E046E000144C0E1FF45C0E2FF37
:10060800E69244C0E1FF45C0E2FFE69044C0E9FF3E
:1006180045C0EAFFEECF00F044C0E1FF45C0E2FF6D
:1006280004500010E66E010E4424E16E000E4520D1
:10063800E26E03C0E6FF0350525C006E045053584C
:10064800016E00C052F001C053F0280E616F040E15
:10065800626F51B02FD0035004102BE04EC0F6FF4C
:100668004FC0F7FF50C0F8FF0900F5CF00F061C098
:10067800E1FF62C0E2FF00C0E6FF614B622B010EA2
:100688004E24006E000E4F20016E000E5020026EA8
:1006980000C04EF001C04FF002C050F0010E035CE4
:1006A800006E000E0458016E00C003F001C004F093
:1006B800D2D724D00350041021E04EC0E9FF4FC028
:1006C800EAFF61C0E1FF62C0E2FFEECFE6FF614BE7
:1006D800622B010E4E24006E000E4F20016E00C0EA
:1006E8004EF001C04FF0010E035C006E000E04587E
:0E06F800016E00C003F001C004F0DCD7120058
:1007060004012051800AD8A471D0C00E516E64D065
:10071600680E006E1A0E016E000E026E00C04EF0DC
:1007260001C04FF002C050F0120E526E000E536E12
:100736005DD0030E006E000E016E22C404F0000EA2
:10074600056EBBDE350E0024E96E000E0120EA6E52
:10075600EECF4EF0EECF4FF0EECF50F0020E4E241D
:10076600F66E000E4F20F76E000E5020F86E090050
:10077600F5CF00F00900F5CF01F000C052F001C03E
:1007860053F034D022514D5C23E3030E006E000E6D
:10079600016E22C404F0000E056E8FDE280E0024C2
:1007A600E96E000E0120EA6EEECF4EF0EECF4FF06E
:1007B600EECF50F04EC0F6FF4FC0F7FF50C0F8FF27
:1007C6000900F5CF00F000C052F0000E536E01D0C4
:1007D600516A0CD0516A0AD02351010A99E023517B
:0E07E600020AA7E02351030ACDE0F4D7120067
:1007F400518E710E0001786F0F0E796F7A6B010EB6
:100804007B6F000E7C6F82DE630E786F000E796F53
:100814007A6B010E7B6F000E7C6F78DE22C44CF085
:100824004C50000A03E1100E436E0FD0200E436EAD
:10083400010E786F000E796F4C0E7A6F000E7B6F8D
:0C084400010E7C6F000E7D6F7BDE120049
:1008500004012251010A0FE120C401F01F0E01160C
:100860000150000A08E1518E2151030A03E1010EF3
:100870005E6E01D05E6A2251000AD8A48BD020C4DB
:1008800001F01F0E01160150020AD8A483D024C41F
:1008900001F00F0E01160150000AD8B47BD0518E22
:1008A00024BF16D024C403F00F0E031603C000F0BB
:1008B000000E016E0036009001363F0E0024E96EF6
:1008C000000E0120EA6EEECF04F0EECF05F015D059
:1008D00024C403F00F0E031603C000F0000E016ED7
:1008E000003600900136440E0024E96E000E01200F
:1008F000EA6EEECF04F0EECF05F02151030A07E1D6
:1009000004C0E1FF05C0E2FF840EE66E43D024C4BC
:1009100000F00F0E0016700E026E0F0E036E0050E8
:100920000226D8B0032A02C0E9FF03C0EAFFFE0E88
:10093000EE14006EEECF01F0FF0E011602C0E1FFD3
:1009400003C0E2FF00C0E6FF01C0E6FF24AF11D004
:1009500004C0E1FF05C0E2FFE66A040E0418006E61
:1009600000C004F004C0E1FF05C0E2FF400EE66EE7
:1009700011D004C0E1FF05C0E2FF880EE66E040E50
:100980000418006E00C004F004C0E1FF05C0E2FFDF
:06099000C80EE66E120025
:100996000401286B296B42D0518E28815E50010AD2
:1009A60001E1288350D0518E4ED0518E24BF16D0EF
:1009B60024C403F00F0E031603C000F0000E016EF0
:1009C6000036009001363F0E0024E96E000E01202D
:1009D600EA6EEECF04F0EECF05F015D024C403F096
:1009E6000F0E031603C000F0000E016E00360090D5
:1009F6000136440E0024E96E000E0120EA6EEECFA9
:100A060004F0EECF05F004C0E9FF05C0EAFFEECF23
:100A160001F001A402D0010E286F15D020C401F008
:100A26001F0E01160150000AB7E020C401F01F0E88
:100A360001160150010AB7E020C401F01F0E01168D
:100A46000150020AB2E051AE07D0280E4E6E040ED7
:0A0A56004F6E5180020E526E120026
:100A6000080E0C6E230E0D6E0D2EFED70C2EFCD72D
:020A7000120072
:0C0A7200100E0D6E0D2EFED700001200BD
:040A7E000000120062
:100A820020C401F0600E0116050E006E005004E055
:100A92000132019EFF0FFBD70150000A01E062D034
:100AA2003ED0518E080E436E5DD02CDE5BD0A1DEAF
:100AB20059D04C0E4E6E000E4F6E5180010E526E8A
:100AC200518E50D067DF4ED0C2DE4CD0630E006E26
:100AD200000E016E24510026D8B0012A00C04EF04B
:100AE20001C04FF05180010E526E518E3BD0518E9B
:100AF200630EE16E000EE26E2451E126D8B0E22AC6
:100B020022C4E6FF2FD0020E0001786F000E796F2B
:100B12007A6B7B6B7C6B7D6B14DD24D023D004015C
:100B22002151050ABEE02151060ABFE02151090AFE
:100B3200BEE02151080ABDE02151000AC3E0215163
:100B4200010AC2E02151030ABFE021510A0ABEE0B4
:100B520021510B0ACCE02151070AD5E021510C0AA0
:060B6200DDE0DCD712000B
:100B68005D6A44C0E1FF45C0E2FFE66A040E44182E
:100B7800E16E45C0E2FF000EE21AE66A56AE01D009
:040B8800569E120063
:100B8C006D9851BE49D056AE28D0020E5D6E010E46
:100B9C004424E16E000E4520E26EE66A44C0E1FF9B
:100BAC0045C0E2FFC80EE66E010E3A24E16E000E5F
:100BBC003B20E26E080EE66E020E3A24E16E000E49
:100BCC003B20E26E280EE66E040EE66E3AC0E1FFA4
:100BDC003BC0E2FFC80EE66E1ED0010E3A24E16E59
:100BEC00000E3B20E26E080EE66E020E3A24E16E19
:100BFC00000E3B20E26E200EE66E040EE66E3AC04E
:100C0C00E1FF3BC0E2FF8C0EE66E44C0E1FF45C045
:100C1C00E2FF840EE66E7DD056BE7BD0040120AF81
:100C2C0051D05350275D02E15250265D04E226C498
:100C3C0052F027C453F0C2DC010E5D6E010E3A2453
:100C4C00E16E000E3B20E26E080EE66E020E3A24B8
:100C5C00E16E000E3B20E26E200EE66E040EE66E98
:100C6C003AC0E1FF3BC0E2FF800EE66E606B010E06
:100C7C003824E16E000E3920E26E080EE66E020E8C
:100C8C003824E16E000E3920E26E200EE66E040E62
:100C9C00E66E38C0E1FF39C0E2FF840EE66E010E4D
:100CAC00606F020E4424E16E000E4520E26E280EA9
:100CBC00E66E040EE66E44C0E1FF45C0E2FFC80ECE
:100CCC00E66E27D0020E5D6E010E4424E16E000E1E
:100CDC004520E26EE66A44C0E1FF45C0E2FFC80E63
:100CEC00E66E010E3A24E16E000E3B20E26E080E19
:100CFC00E66E020E3A24E16E000E3B20E26E280EE8
:100D0C00E66E040EE66E3AC0E1FF3BC0E2FFC80E91
:040D1C00E66E12006D
:100D2000010E3824E96E000E3920EA6EEECF00F095
:100D300000C002F0000E585C02E10250575C03E272
:100D400057C002F00AD00250575C006E000E58588F
:100D5000016E00C057F001C058F0036A0250035CF6
:100D60001CE2280EE96E040EEA6E0350E926D8B0A4
:100D7000EA2AEECF00F054C0E1FF55C0E2FF00C008
:100D8000E6FF010E5424006E000E5520016E00C0D7
:100D900054F001C055F0032AE1D7000E006E585000
:100DA000005C02E15750000828E2010E3A24E16E8F
:100DB000000E3B20E26E080EE66E020E3A24E16E53
:100DC000000E3B20E26E280EE66E040EE66E38C082
:100DD000E9FF39C0EAFFEECF00F000BC07D03AC00F
:100DE000E1FF3BC0E2FFC80EE66E06D03AC0E1FF6D
:100DF0003BC0E2FF880EE66E19D0010E3A24E16E88
:100E0000000E3B20E26E080EE66E020E3A24E16E02
:100E1000000E3B20E26E200EE66E040EE66E3AC037
:0E0E2000E1FF3BC0E2FF840EE66E569E12001C
:100E2E0044C0E9FF45C0EAFFEECF00F000AE05D0AA
:100E3E0044C0E1FF45C0E2FFE66A0001646B5D6AF3
:100E4E00526A536A516A16DE030E0001786F000E65
:100E5E00796F7A6B7B6B7C6B7D6BA2EC02F08FDE15
:020E6E00120070
:100E700044C0E9FF45C0EAFFEECF00F0000E00BC21
:100E8000010E0001776F040E4418006E00C044F09C
:100E90004350080A0AE122C46EFF6E50000803E2C4
:100EA000100E436E02D0040E436E5D50010A27E11E
:100EB000020E4424E16E000E4520E26E280EE66E1E
:100EC000040EE66EE4EC02F06451020A07E144C04D
:100ED000E1FF45C0E2FF840EE66E10D07751000AB4
:100EE00007E144C0E1FF45C0E2FFC80EE66E06D050
:100EF00044C0E1FF45C0E2FF880EE66E01D034DE5B
:020F00001200DD
:100F02005D50020A02E10BDF1FD02DDE00016051AD
:100F1200000A19E1010E3A24E16E000E3B20E26E56
:100F2200080EE66E020E3A24E16E000E3B20E26EDF
:100F3200200EE66E040EE66E3AC0E1FF3BC0E2FF11
:0A0F42008C0EE66E01D0606B120009
:100F4C00160E6F6E9F0E6B6E7B0E696E1200160E78
:0C0F5C006F6E9F0E6B6E7B0E696E1200B4
:100F68006FC002F070C003F072C000F073C001F0EF
:100F7800010E0001725F000E735B0050011009E062
:100F880002C0E1FF03C0E2FF71C0E6FF024A032A84
:040F9800EBD7120081
:0A0F9C00D08EA28AA08AF28E120005
:100FA600680E006E1A0E016E000E026E0E0E002402
:100FB600F66E000E0120F76E000E0220F86E090094
:100FC600F5CF03F003C004F00F0E0024F66E000EFA
:100FD6000120F76E000E0220F86E0900F5CF01F031
:100FE6000150035C12E2680E006E1A0E016E000ECE
:100FF600026E0F0E0024F66E000E0120F76E000E34
:101006000220F86E0900F5CF04F0680E006E1A0E85
:10101600016E000E026E100E0024F66E000E012008
:10102600F76E000E0220F86E0900F5CF01F00150B0
:10103600045C12E2680E006E1A0E016E000E026E5D
:10104600100E0024F66E000E0120F76E000E022030
:0E105600F86E0900F5CF04F004C000F012009F
:101064000001726B736B746B020E6F25F66E000ECB
:101074007021F76E000E7121F86E0900F5CF05F0AE
:10108400030E6F25F66E000E7021F76E000E7121AF
:10109400F86E0900F5CF00F000C003F0000E046EF6
:1010A40003C001F0006A05500024066E000E012002
:1010B400076E6FC008F070C009F071C00AF0010E2D
:1010C4000824F66E000E0920F76E000E0A20F86E52
:1010D4000900F5CF01F00150020A1BE1060E0824B5
:1010E400F66E000E0920F76E000E0A20F86E090055
:1010F400F5CF01F00150725D0CE2060E0824F66E85
:10110400000E0920F76E000E0A20F86E0900F5CFD4
:1011140072F0010E0824F66E000E0920F76E000E20
:101124000A20F86E0900F5CF01F00150040A1BE112
:10113400080E0824F66E000E0920F76E000E0A2031
:10114400F86E0900F5CF01F00150725D0CE2080E53
:101154000824F66E000E0920F76E000E0A20F86EC1
:101164000900F5CF72F008C0F6FF09C0F7FF0AC006
:10117400F8FF0900F5CF00F000507325016E000E52
:101184007421026E01C073F002C074F00750025C57
:1011940002E10650015C01E30FD008C0F6FF09C06C
:1011A400F7FF0AC0F8FF0900F5CF00F00050082649
:0E11B400000E09220A2283D772C000F012003A
:1011C200FE0E356E190E366E000E376E8A0E286EC2
:1011D2001A0E296E000E2A6E7A0E2B6E1A0E2C6EC5
:1011E200000E2D6E480E2E6E1A0E2F6E000E306EF1
:0211F2001200E9
:1011F400000E0001701902E1000E6F1902E1016A8C
:1012040009D06FC0E9FF70C0EAFFEECF00F0016AB9
:0A12140000BE012A01C000F0120024
:10121E0000017051000A12E06FC000F0000E016E66
:10122E00003600900136440E0024E96E000E0120B7
:10123E00EA6EEECF04F0EECF05F011D06FC000F0E5
:10124E00000E016E0036009001363F0E0024E96E4E
:10125E00000E0120EA6EEECF04F0EECF05F0020E86
:10126E000424E16E000E0520E26E71C0E6FF72C02E
:10127E00E6FF010E0424E16E000E0520E26E73C03F
:10128E00E6FF04C0E9FF05C0EAFFEECF00F004C0A0
:10129E00E1FF05C0E2FF400E0014E66E04C0E9FF58
:1012AE0005C0EAFFEECF00F004C0E1FF05C0E2FF8B
:1012BE00880E0010E66E7051000A1BE06FC000F041
:1012CE00000E016E003600900136440E0024026EB0
:1012DE00000E0120036E02C0E9FF03C0EAFF040EF8
:1012EE00EE18006E02C0E1FF03C0E2FF00C0E6FF91
:1012FE001AD06FC000F0000E016E0036009001365D
:10130E003F0E0024026E000E0120036E02C0E9FFA4
:10131E0003C0EAFF040EEE18006E02C0E1FF03C028
:10132E00E2FF00C0E6FF04C000F005C001F01200AD
:10133E0000016FBF02D0819601D081866FBD02D0B1
:10134E00819401D081846FBB02D0819201D08182C1
:10135E006FB902D0819001D0818027B002D08188F0
:10136E0001D08198818A3FEC05F0819A6FB702D047
:10137E00819601D081866FB502D0819401D081848F
:10138E006FB302D0819201D081826FB102D0819071
:10139E0001D0818027B002D0818801D08198818AC6
:1013AE003FEC05F0819A27A003D030EC05F002D077
:0613BE0039EC05F01200FD
:1013C4004350000A0AE16D6A696ABEDDE5DD6DB667
:0C13D40002D06D86FCD7010E436E1200A3
:1013E000200E435C03E36DB201D002D0006A23D02B
:1013F00048C06FF049C070F0FDDE00521BE1010EE5
:101400004824E96E000E4920EA6EEECF00F000C0DD
:101410006EF06DC06FF0706B6AC071F06BC072F0EF
:101420006CC073F0FCDE00C048F001C049F06EC033
:0814300000F001D0006A120077
:10143800C4DE486A496A4A6A4B6A6A6A686A82DD2F
:101448006D8C6E6A710E00016F6F0F0E706F716B8D
:10145800010E726F000E736F83DD6D9C6A6B080E50
:101468006A5D16E26AC000F0000E016E0036009058
:101478000136003600900136000E0024E16E040E9D
:101488000120E26EE66AE66AE66AE66A6A2BE7D750
:10149800160E706E68A603D0F70E6816FBD7516A51
:1014A800566A576A586A6D98080E446E040E456E5F
:0614B8004C6A436A1200B9
:1014BE0073DD00C06AF0FE0E00016F6F190E706FC3
:1014CE00000E716FC8DD00C06BF06A51005C03E264
:0C14DE006AC000F002D06BC000F01200E9
:0C14EA0027906AC06FF026DF27801200F8
:0414F600A19A1200A5
:1014FA006984EF0E68166D82750E0001786F000E12
:10150A00796F7A6B7B6B7C6B7D6BA2EC02F01200BD
:10151A0070A019D038C0E9FF39C0EAFFEECF01F058
:10152A000150800A0FE144C0E9FF45C0EAFFEECF4F
:10153A0001F00150840A06E138C0E1FF39C0E2FF38
:0C154A008C0EE66E7090DF0E681612002A
:10155600FD0E5F14016E026AFF0E0216000E0218DF
:1015660002E1000E01186DE17E0E5F14016E01C0EE
:1015760003F00332039E03C000F0000E016E003636
:1015860000900136003600900136000E0024026EEF
:10159600040E0120036E02C038F003C039F002C009
:1015A6003AF003C03BF0040E3A18006E00C03AF061
:1015B60002C0E9FF03C0EAFFEECF00F000C001F071
:1015C6003C0E01160132019E0132019E01500D0AA8
:1015D60036E1020E3824E96E000E3920EA6EEECFAF
:1015E60001F0EECF02F00250040A02E1280E0118C3
:1015F60023E1020E3824E16E000E3920E26E200E41
:10160600E66E040EE66E0001766B080E765D14E259
:10161600200EE16E040EE26E7651E126D8B0E22A83
:10162600280EE96E040EEA6E7651E926D8B0EA2A4B
:10163600EECFE6FF762BE9D717EC07F001D05EDC9C
:101646000DD0FD0E5F14016E026AFF0E0216000E2B
:0E165600021802E1040E011801E107DC120087
:10166400740E0001786F000E796F7A6B7B6B7C6B64
:101674007D6BA2EC02F06D92699468A403D0FB0E1A
:061684006816FBD71200FE
:10168A009BDD486A496A4A6A4B6A6A6A686A59DC2F
:10169A006D8C6E6A710E0001786F0F0E796F7A6B1E
:1016AA00010E7B6F000E7C6F88EC02F06D9C766BEE
:1016BA00080E765D16E276C000F0000E016E003666
:1016CA0000900136003600900136000E0024E16ECB
:1016DA00040E0120E26EE66AE66AE66AE66A762B9C
:1016EA00E7D7160E706E68A603D0F70E6816FBD7FA
:1016FA00516A566A576A586A6D98080E446E040E03
:08170A00456E4C6A436A1200AF
:1017120010D0800E0001656F1AD0C00E656F17D011
:10172200940E656F14D0D40E656F11D0800E656F64
:101732000ED000016551010AECE06551020AEDE0AC
:101742006551030AEDE06551040AEDE0EFD7660545
:10175200006E6551002600C065F000C06FF0EEDD3E
:101762002790696B69516725E96E000E6821EA6E60
:10177200EE520BE069516725E96E000E6821EA6EB0
:0E178200EECF6AF0B1DE692BEDD727801200A2
:1017900096DE00C04DF0010E3E6E65C031F066C0B1
:1017A00032F067C033F068C034F046DE010E016EDF
:0A17B0000150010A01E106DE1200FB
:1017BA00939A93989390939293949396819A8198FB
:1017CA00819681948192819030EC05F030EC05F09D
:1017DA0030EC05F081828180818A3FEC05F0819AA4
:1017EA0030EC05F0818A3FEC05F0819A30EC05F087
:1017FA00818A3FEC05F0819A30EC05F08190818A6C
:10180A003FEC05F0819A30EC05F0818A3FEC05F057
:10181A00819A81928186818A3FEC05F0819A30EC27
:10182A0005F081968180818A3FEC05F0819A81904A
:10183A00818A3FEC05F0819A30EC05F0818A3FEC11
:10184A0005F0819A8180818A3FEC05F0819A30EC1B
:10185A0005F08190818A3FEC05F0819A8186818426
:10186A0081828180818A3FEC05F0819A30EC05F013
:04187A0027801200B1
:10187E004350010A07E16DBA05D0686A698069882C
:10188E00020E436E68A405D069A403D0FB0E681641
:10189E00E2DE6DA202D028DE78D068A018D069A052
:1018AE0016D0ECDE040E436E200E0401026F040E01
:1018BE00036F080E016F000E0015006E00C000F4DD
:1018CE008C0E0011006E00C000F4FE0E681668A8A3
:1018DE0005D069A803D00ADEEF0E681668AC11D0E9
:1018EE0069AC0FD0730E0001786F000E796F7A6BB2
:1018FE007B6B010E7C6F000E7D6FA2EC02F0BF0EB3
:10190E00681668AA03D069AA01D000DE68A210D0BA
:10191E0069A20ED0FF0E0001786F3F0E796F7A6BC1
:10192E007B6B010E7C6F000E7D6FA2EC02F06A6A7B
:10193E00040E435C02E2D8DD28D069A625D0000152
:10194E00756B040E755D20E268A61AD06CCF5FF041
:10195E00F70E6816780E5F14016E0150000A02E150
:10196E00F3DD0DD0720E0001786F000E796F5F0EF1
:10197E007A6F000E7B6F7C6B7D6BA2EC02F001D058
:0C198E0003D00001752BDDD7AFDD120087
:10199A0031C06AF032C06BF0400E00016C6F010E6C
:0619AA006D6F19DD120053
:1019B0000900F5CFE6FF0006FBE10106F9E11200A0
:1019C0000F0EC112070EB412F8DE000E0001656F93
:1019D000050E666F400E676F050E686FD9DEDDDF9E
:1019E000005201E1FCD7010E0001656F010E666F28
:0E19F000000E676F050E686F8CDEF1D7FFD713
:1019FE0009022900010100803209040000020300DF
:101A0E000000092101010001222100070581034088
:091A1E000001070501034000016D
:101A27000600FF0901A10119012940150026FF0041
:101A37007508954081021901294075089540910262
:011A4700C0DE
:101A4800200355005300420020004800490044008C
:101A580020004C0069006200720061007200790089
:101A68001201000200000008341201000100010206
:021A780000016B
:101A7A0010034D004500470041004800450044005E
:041A8A000403090444
:020000040030CA
:0E000000200C3F1EFF8381FF0FC00FE00F405A
:00000001FF
